:100000000C947B050C94A3050C94A3050C94A305F8
:100010000C94A3050C94A3050C94A3050C94A305C0
:100020000C94A3050C94A3050C94680D0C94D70DA7
:100030000C94A3050C94A3050C94A3050C94A305A0
:100040000C94A3050C94A3050C94A3050C94A30590
:100050000C94A3050C94A3050C94A3050C9409100F
:100060000C94A3050C94A3050C94A3050C94A30570
:100070000C94A3050C94A3050C94A3050C94A30560
:100080000C94A3050C94A3050C94A3050C94A30550
:100090000C94A3050C94A3050C94A3050C94A30540
:1000A0000C94A3050C94A3050C94A3050000000078
:1000B000003E5B4F5B3E3E6B4F6B3E1C3E7C3E1CEE
:1000C000183C7E3C181C577D571C1C5E7F5E1C0034
:1000D000183C1800FFE7C3E7FF0018241800FFE7EB
:1000E000DBE7FF30483A060E2629792926407F05AE
:1000F0000507407F05253F5A3CE73C5A7F3E1C1CC4
:1001000008081C1C3E7F14227F22145F5F005F5F83
:1001100006097F017F006689956A6060606060946F
:10012000A2FFA29408047E040810207E2010080874
:100130002A1C08081C2A08081E101010100C1E0C7F
:100140001E0C30383E3830060E3E0E060000000011
:100150000000005F00000007000700147F147F14F8
:10016000242A7F2A1223130864623649562050003D
:1001700008070300001C2241000041221C002A1C29
:100180007F1C2A08083E0808008070300008080814
:100190000808000060600020100804023E51494534
:1001A0003E00427F400072494949462141494D3352
:1001B0001814127F1027454545393C4A49493141B9
:1001C000211109073649494936464949291E000087
:1001D00014000000403400000008142241141414DC
:1001E0001414004122140802015909063E415D59C8
:1001F0004E7C1211127C7F494949363E41414122D1
:100200007F4141413E7F494949417F090909013EFA
:10021000414151737F0808087F00417F4100204021
:10022000413F017F081422417F404040407F021C33
:10023000027F7F0408107F3E4141413E7F0909094A
:10024000063E4151215E7F09192946264949493216
:1002500003017F01033F4040403F1F2040201F3FDC
:100260004038403F63140814630304780403615961
:10027000494D43007F4141410204081020004141A3
:10028000417F04020102044040404040000307084F
:100290000020545478407F2844443838444444284B
:1002A000384444287F385454541800087E090218F2
:1002B000A4A49C787F0804047800447D400020407A
:1002C000403D007F1028440000417F40007C0478BE
:1002D00004787C080404783844444438FC18242406
:1002E0001818242418FC7C08040408485454542486
:1002F00004043F44243C4040207C1C2040201C3C03
:100300004030403C44281028444C9090907C4464F9
:10031000544C44000836410000007700000041368C
:10032000080002010204023C2623263C1EA1A16112
:10033000123A4040207A3854545559215555794144
:100340002154547841215554784020545579400C1B
:100350001E527212395555555939545454593955FC
:100360005454580000457C410002457D420001453F
:100370007C40F0292429F0F0282528F07C545545AC
:10038000002054547C547C0A097F4932494949323F
:100390003248484832324A4848303A4141217A3A54
:1003A00042402078009DA0A07D39444444393D401E
:1003B00040403D3C24FF2424487E4943662B2FFCCB
:1003C0002F2BFF0929F620C0887E09032054547979
:1003D000410000447D413048484A32384040227A4A
:1003E000007A0A0A727D0D19317D2629292F2826C7
:1003F0002929292630484D402038080808080808CF
:100400000808382F10C8ACBA2F102834FA00007B27
:10041000000008142A142222142A1408950022002D
:1004200095AA005500AAAA55AA55AA000000FF00E7
:10043000101010FF00141414FF001010FF00FF1024
:1004400010F010F0141414FC001414F700FF000056
:10045000FF00FF1414F404FC141417101F10101FD5
:10046000101F1414141F00101010F0000000001FC3
:10047000101010101F10101010F010000000FF10CE
:100480001010101010101010FF10000000FF1400CA
:1004900000FF00FF00001F10170000FC04F41414FC
:1004A0001710171414F404F40000FF00F7141414C8
:1004B00014141414F700F7141414171410101F1048
:1004C0001F141414F4141010F010F000001F101F6B
:1004D0000000001F14000000FC140000F010F010D9
:1004E00010FF10FF141414FF141010101F00000050
:1004F00000F010FFFFFFFFFFF0F0F0F0F0FFFFFF54
:100500000000000000FFFF0F0F0F0F0F38444438AA
:10051000447C2A2A3E147E02020606027E027E02E5
:1005200063554941633844443C04407E201E200604
:10053000027E020299A5E7A5991C2A492A1C4C7241
:1005400001724C304A4D4D303048784830BC625AC8
:10055000463D3E494949007E0101017E2A2A2A2A58
:100560002A44445F444440514A444040444A514034
:100570000000FF0103E080FF000008086B6B0836F5
:1005800012362436060F090F060000181800000066
:100590001010003040FF0101001F01011E00191D55
:1005A0001712003C3C3C3C0000000000F0F89C8E20
:1005B0008783878E9CF8F00000FEFF03030303038C
:1005C000070EFCF80000FEFF0303030303070EFC05
:1005D000F80000FFFF00000000000000FFFF000027
:1005E000FEFF8383838383C7EE7C380000F8FC0E14
:1005F00007030303070EFCF800003F7FE0C0808084
:10060000C0E07F3FFFFF01010101010101FFFF0089
:1006100000FFFF0C0C0C0C1C3E77E3C100007FFFB9
:10062000C0C0C0C0C0E0703F1F00001F3F70E0C0EE
:10063000C0C0E0703F1F00007FFFC1C1C1C1C1E366
:10064000773E1C00001F3F70E0C0C0C0E0703F1F3D
:10065000000000000001FFFF01000000D5F08D1434
:10066000A1C881CFD9F1AF20000E10C0E0F0D0B802
:10067000DCBCDCBCD8B0F0E0C0011D033A060505C7
:100680000505063A031D01C0E0F0B0D8BCDCBCDCB7
:10069000B8D0F0E0C01905030A3605050505360A8D
:1006A000030519101000FEFCFED0FEF0F8D0FEFC91
:1006B000FE00FEC0E080E000E000E080E0C0F0E08E
:1006C000F060F000F0000301030103010301FF7D6E
:1006D000FF7CFF07FF070F070F071F0F3F1FFF7F5D
:1006E000FF60FF00F0000000FFFEFFE8FFF8FCE8FD
:1006F000FFFEFF00FF80E000E000E080E0C0F0E0EF
:10070000F830F80078000000010001000302FF7ECD
:10071000FF7EFF06FF070F070F071F0FFF7FFF7FFB
:10072000FF00FF000000FFFEFFE8FFF8FCE8FFFE0F
:10073000FF00FFC0E080E000E000E080E0C0F0E00B
:10074000F830F8007800010001000100F362FF7E3C
:10075000FF3EFF077F070F070F071F0FFF7FFF7F7A
:10076000FF00FF000000F060F0E0F0C0F080E0006B
:10077000E000E080E0C0E000FEFCFED0FEF0F8D03B
:10078000FEFCFE00FE00F060FF7FFF1FFF0F3F0733
:100790001F070F070F07FF7CFF7DFF01FF0103010C
:1007A0000301030003007830F8E0F8C0F080E000B7
:1007B000E000E080E000FFFEFFE8FFF8FCE8FFFE5D
:1007C000FF00FF0000000000FF7FFF7FFF0FFF071B
:1007D0001F070F070F06FF7EFF7EFF02FF000300CB
:1007E0000100010000007830F8E0F8C0F080E0007F
:1007F000E000E080E0C0E000FFFEFFE8FFF8FCE87A
:10080000FFFEFF00FF000000FF7FFF7FFF0FFF07DD
:100810001F070F070F077F3EFF7EFF62FF00F300F9
:100820000100010001500FA49295ACA42253B29292
:10083000959C4DC94A56B22253B29295ACC894AC1D
:1008400064252B72E5D2D974295595AA4A9552F997
:10085000745E91A7D34AA6A353329D56E44A56B27A
:100860009215593AAD643A3A252B594945A6642563
:100870002B395B3AAD64BAC7D2ACB3ADD3E9E8D299
:10088000E9EC74E97476F67D3A9FBB743A77E96CCB
:100890003A39B6665FA7B3D3A7D3D9D9679F75B6E0
:1008A00059679F155D0F19FFFFFF7F3E3EC6FFFF93
:1008B000FFFFFF6764FCFFFFFFF9F818ED96D16EAC
:1008C000F9F89D739C8CFFFFFFFFFFCFC868B78CC2
:1008D00076CBC7CFC7CFC7C7F8FFFFFFDB2DA3DDA0
:1008E000BEDD6EB7DBED76D6ED76BBDD6EB7B36EF3
:1008F000C7D276D6EDACDB59B76371BBDD6EB7DB23
:10090000EDACDB59B7B36EC7D276BBDD6EB7DB5942
:10091000B76371BB057F3FC02C6EB776FB7636BBE5
:1009200095DBEDCA6E99ECF6ABBEEAAB5EF52A0C30
:10093000D9AD4EA7D3E998EC96C96EBFD5AD6EB5CB
:100940009DCD6EBFEAABBEEA55AFC290DDEA74BA88
:10095000ED96C96ED57ABDB25B26BBB5CBF5DB2D66
:1009600093DD32D9EDB7BAD5ADAC52C564B75FF5FA
:10097000555FF5AA5731D9EDAB5EF5AAAD92F057A8
:100980003AFA74F4E9E8D2E9743A9D0E4DE9743A02
:100990009D4E47978E2E1DDAD2E9743A9D0E5DE981
:1009A000743A1D6D3A4AA7ECABBEDC559FFAE6726D
:1009B000CA7EEA5B9DDA2AE7DB2EDD7AF96D97BE07
:1009C000EDF6ABBEEAAB5EF5542955BBFAAAAFFA19
:1009D000AA6F7583C74A6FB7DBED76B6EDECDBD94E
:1009E000B6B36F67DB6EB7DBED76B6ED76BBDD6E6B
:1009F00083BD425BA0EBB2B5CA553A9FCF676B95FA
:100A0000AB743ED9C94EE607EFB64F76DEB95467F0
:100A1000BB94ECAECFA7E5D96AB57239C5AF6425F2
:100A20002B59912959C94A2A3225D36925D36945B9
:100A30002565252BA9C894AC64256753B292959C73
:100A40002F3225D36945A664252B39979495AC643C
:100A50004597CD66B3D9D4B2929554644AA6D3D102
:100A60002959C94A4932A5D349452565252BA9C825
:100A700094AC642515992A59C94A49782B9F4F5639
:100A80003A9B8D2F1B6835080B00020202000009FB
:100A900004000001020200000524001001052401E9
:100AA0000101042402060524060001070581031044
:100AB000004009040100020A00000007050202408C
:100AC000000007058302400000040309041201002E
:100AD00002EF02014041233680000101020301417F
:100AE000726475696E6F204C4C430041726475628C
:100AF0006F790000B91011241FBECFEFDAE0DEBF1E
:100B0000CDBF11E0A0E0B1E0E2E4F4E302C0059063
:100B10000D92A636B107D9F726E0A6E6B1E001C0EE
:100B20001D92A63BB207E1F715E0CBE7D5E004C084
:100B30002197FE010E940B1ACA37D107C9F70E94FC
:100B400040110C941F1A0C94000080E0E7E8F1E0DB
:100B500081118FEF0024819381938193819303947A
:100B6000D1F70895E7E8F1E0A0E0B8E000800EBC1E
:100B70008111012C1197A0FDFDCF0192B9F70DB4A1
:100B80000895FC0180918601882311F13FB7F89404
:100B900082E08093E9002091F200822F90E0181605
:100BA000190614F481E090E0882339F0289844E68F
:100BB000409385014091F1004083222339F0209138
:100BC000F200211103C02BE62093E8003FBF0895F7
:100BD0008FEF9FEF08952FB7F89483E08093E9009B
:100BE0009091E800892F807295FF04C09091F200E7
:100BF00080E4891B2FBF089580917D0181110DC074
:100C000082E08093790184E080937A0110927C01E4
:100C100010927B0181E080937D0189E791E0089546
:100C2000CF93DF931F92CDB7DEB76983DC01ED91DF
:100C3000FC910280F381E02D41E050E0BE016F5F46
:100C40007F4F09950F90DF91CF91089583E08093B6
:100C5000E9008091F200882319F08AE38093E8008C
:100C600008950E94EB0590E00895CF93DF931F92C3
:100C7000CDB7DEB7FC018485958597FD08C02FEFC1
:100C80003FEF358724870F90DF91CF910895CE01F4
:100C900001960E94C105019719F4898190E0F3CF74
:100CA0008FEF9FEFF0CF0F931F93CF93DF931F92A0
:100CB000CDB7DEB78C01FC018485958597FF0BC00D
:100CC000CE0101960E94C105019771F4898190E0DF
:100CD000F80195878487F801848595850F90DF91C9
:100CE000CF911F910F9108958FEF9FEFF1CFFC01EE
:100CF0008485958597FD0BC09FB7F89482E080931B
:100D0000E9008091F2009FBF90E0019608959FB79F
:100D1000F89482E08093E9008091F2009FBF90E018
:100D200008954091730150917401209171013091A7
:100D3000720142175307B4F49091E8009570E1F303
:100D40009091E80092FD19C08093F10080917301A9
:100D50009091740101968F739927892B19F48EEF66
:100D60008093E800809173019091740101969093B3
:100D700074018093730181E0089580E00895DF920B
:100D8000EF92FF920F931F93CF93DF93D82E8A0198
:100D9000EB017B01E40EF51ECE15DF0559F0D7FE01
:100DA00012C0FE0184910E94910621968111F4CF18
:100DB0000FEF1FEFC801DF91CF911F910F91FF90AF
:100DC000EF90DF9008958881EECF0F931F93CF931C
:100DD000DF931F92CDB7DEB782E0898342E450E013
:100DE00067E87AE080E80E94BF060E94FC05DC010B
:100DF00012960D911C910115110589F0D801ED9104
:100E0000FC910280F381E02DBE016F5F7F4FC8012E
:100E1000099597FD04C0F80100851185ECCF898103
:100E20000F90DF91CF911F910F910895615030F095
:100E30002091F100FC0120830196F8CF289884E6E8
:100E4000809385010895AF92BF92CF92DF92EF9287
:100E5000FF920F931F93CF93DF936C017B018B0164
:100E6000040F151FEB015E01AE18BF08C017D107B4
:100E700059F06991D601ED91FC910190F081E02D3E
:100E8000C6010995892B79F7C501DF91CF911F9193
:100E90000F91FF90EF90DF90CF90BF90AF900895AB
:100EA0003FB7F8948091670190916801A091690122
:100EB000B0916A0126B5A89B05C02F3F19F0019695
:100EC000A11DB11D3FBFBA2FA92F982F8827BC01A4
:100ED000CD01620F711D811D911D42E0660F771FCC
:100EE000881F991F4A95D1F708958F929F92AF92CC
:100EF000BF92CF92DF92EF92FF926B017C010E9432
:100F000050074B015C01C114D104E104F104B9F0B4
:100F10000E945007681979098A099B09683E734045
:100F20008105910580F321E0C21AD108E108F1089A
:100F300088EE880E83E0981EA11CB11CE4CFFF90C0
:100F4000EF90DF90CF90BF90AF909F908F900895DB
:100F50008F929F92AF92BF92CF92DF92EF92FF92C9
:100F60000F931F93CF93DF936C017B018A018091D4
:100F70002301882309F45CC080918601882309F449
:100F800057C08091780180FF05C08091E0008260A9
:100F90008093E000E801B12C8AEFA82E93E0892E1F
:100FA0002AE3922E209711F4BB20D9F10E94EB0581
:100FB00081110AC0AA94AA20D9F161E070E080E012
:100FC00090E00E947507EECF8C171D0611F00CF013
:100FD0008C2F9FB7F8948092E9002091E80025FDBE
:100FE00002C09FBFDFCF282F30E0C21BD30BF70119
:100FF000815020F041914093F100FACFE20EF31EB0
:10100000BB2021F09092E800B12CEBCF8091E8005A
:1010100085FDE7CF9092E800BB24B394209709F3B5
:10102000F3CF5D9884E680937701101611063CF0AB
:1010300081E090E0F6019383828310E000E0C80134
:10104000DF91CF911F910F91FF90EF90DF90CF90A4
:10105000BF90AF909F908F9008954F925F926F9244
:101060007F928F929F92AF92BF92CF92DF92EF9238
:10107000FF920F931F93CF93DF934C015901FC2DE7
:10108000C02FD0E0CE01880D991D181619060CF05E
:101090006CC020E8821691040CF067C09B012E0DF5
:1010A000311D121613060CF060C0603471050CF08F
:1010B0005CC04115510509F458C0E62FE770FE2EBB
:1010C000DB0177FD179633E0B595A7953A95E1F7E3
:1010D0003A2F77FF04C0FF2011F03FEF3A0F662749
:1010E00077276819790997FC02C070E060E08038C2
:1010F00091050CF44BC090E89819961BA32F032E72
:10110000000CBB0B1A2F10953F3F0CF010E021E0B4
:101110008E2D877009F420E0E694E694E694E20EC2
:10112000AE0DB11D19971CF028E0E22EE31AE11A6A
:10113000310F20E83203D0011124A80DB91DA60FEC
:10114000B71F019F600D711D1124460F571F0F2DF2
:101150000F2C000C110BF33009F41CC1C8F4F13052
:1011600009F4D0C0F23009F47CC0DF91CF911F9117
:101170000F91FF90EF90DF90CF90BF90AF909F9036
:101180008F907F906F905F904F900895902FB5CF84
:10119000FA3FB1F1232F2E0DFB3F39F7321729F318
:1011A000BD0169577E4FD12CC12CC91608F0A4C0CF
:1011B000FA01EC0DFD1DE491F0E04F01002E02C09C
:1011C000880C991C0A94E2F737FD06C0FB01808168
:1011D000E82CE0948E218083FF2061F0373054F4B6
:1011E0005B01F0E8AF0EB11CE92CE094F5018081C1
:1011F0008E218083FFEFCF1ADF0A6F5F7F4FD5CF3D
:10120000232F2E0D321709F4B0CFBD0169577E4F41
:10121000D12CC12CC91608F069C0FA01EC0DFD1DD6
:10122000E491F0E04F01002E02C0880C991C0A9452
:10123000E2F737FD04C0FB01808188298083FF200D
:1012400051F0373044F45B01F0E8AF0EB11CF5010A
:10125000808189298083FFEFCF1ADF0A6F5F7F4F7C
:10126000D9CF6FEF70E00F2C02C0660F771F0A9482
:10127000E2F760957095772E232F2E0D321709F423
:1012800074CFFD01E957FE4F6F01B12CA12CA916B7
:1012900038F5FA01EA0DFB1DE491F0E02F01002E74
:1012A00002C0440C551C0A94E2F737FD05C0F60154
:1012B0008081862384298083FF2059F037304CF4C5
:1012C0004601F0E88F0E911CF40180818721852969
:1012D0008083FFEFAF1ABF0A8FEFC81AD80AD7CFA3
:1012E0003F5F4C0F5D1FA058BF4FC8CF3F5F4C0FF3
:1012F0005D1FA058BF4F86CF3F5F4C0F5D1FA058AA
:10130000BF4F4CCF6A0D7B1D232F2E0D321709F4D2
:101310002CCFFD01E957FE4F6F01B12CA12CA9166E
:1013200088F5FB01EA0DFB1D8490912C002E02C074
:10133000880C991C0A94E2F780949094FA01EA0DC3
:10134000FB1D6490712C002E02C0660C771C0A9461
:10135000E2F737FD05C0F601808188218629808368
:10136000FF2049F037303CF4F601E058FF4F808110
:10137000892187298083FFEFAF1ABF0A8FEFC81A30
:10138000D80ACDCF3F5F4C0F5D1F6C0F7D1FA0585B
:10139000BF4FBCCFC92ED12CFA01E60FF71FA957BA
:1013A000BE4F00E810E00C191D09CC19DD09BE0183
:1013B000660F771F41E050E06A010F2C01C0CC0C92
:1013C0000A94EAF7592F2E2D792ECF93DF93ED0152
:1013D000EF96EF9622968590A590FF2059F08C9C71
:1013E0004001AC9C500137302CF4E880B094EB20E5
:1013F000E928E99233233AF0EC90A094EA20E82817
:10140000ED920C94040A11965A9529F72A9551F0F9
:10141000572D33951124E60FF11DA00FB11DC00FFC
:10142000D11DD9CFDF91CF9111249FCE2D9A089550
:10143000BC0190E080E00C9475078FB18095807FAF
:10144000669B88601C9B846008951F93CF93DF93F5
:10145000DC0130E020E050E040E011E0C1E0D0E00D
:101460002617370791F114968C911497811115C0A6
:1014700014961C93149712968D919C911397ED914D
:10148000FC911197E80FF91FE4911596EC931597CD
:10149000019613969C938E93129714969C91149791
:1014A00015968C911597892349F0FE01022E02C0F2
:1014B000EE0FFF1F0A94E2F74E2B5F2B990F149645
:1014C0009C9314972F5F3F4FCBCFCA01DF91CF91F1
:1014D0001F9108952F923F924F925F926F927F9249
:1014E0008F929F92AF92BF92CF92DF92EF92FF9234
:1014F0000F931F93CF93DF93CDB7DEB72D970FB622
:10150000F894DEBF0FBECDBF5C018B015A834983C7
:101510001C821B821D821E8268E070E0CE01019653
:101520000E94250A01961C0168E070E0CE01019638
:101530000E94250A7C0161E070E0CE0101960E94C4
:10154000250A91012A0D3B1D121613060CF0B3C09B
:1015500097012F5F3F4FA901400F511F1416150629
:101560000CF0A9C0380147E064227724A80173E099
:10157000559547957A95E1F759874887890137FF4F
:1015800002C0095F1F4F63E0159507956A95E1F763
:1015900027703327232B11F00F5F1F4F482E51E088
:1015A0005F83512CF12CE12CD12CC12C88E090E0F0
:1015B0009C01261937093D872C87C016D1060CF0EF
:1015C0007AC088248394912C61E070E0CE0101966A
:1015D0000E94250A892B21F432E0830E911CF4CF5E
:1015E000B401CE0101960E94250A01969B878A8745
:1015F00090E080E04A855B858417950708F058C025
:10160000442011F05F81552AAF81AA0F09F04AC02A
:10161000288539852C0D3D1DA9014F5F5F4F49304D
:10162000510580F5A5014E0D5F1D4038510550F55F
:10163000B9017695762F6627779567956A0D7B1D9C
:101640006E0D7F1D852C912CFB01E957FE4FA401E7
:10165000062C01C0440F0A94EAF75081452B4083C1
:101660006114710479F02730310561F0FB01E95F05
:10167000FD4F0C8402C0959487940A94E2F7508041
:10168000852880822FEFE21AF20AE214F3046CF04C
:101690003FEFC31AD30A41E04F83F12CE12C0196AE
:1016A0005A2EA8CFAF83A52DFACF51E05F83F7CF95
:1016B00081E0482682CF2D960FB6F894DEBF0FBE8C
:1016C000CDBFDF91CF911F910F91FF90EF90DF90F1
:1016D000CF90BF90AF909F908F907F906F905F90D2
:1016E0004F903F902F90089580389105B8F4603462
:1016F0007105A0F420E191E061FD94E060FD990F97
:1017000062FD9295687F269FD0011124A80FA957EA
:10171000BE4F8C9140FF03C0892B8C930895909508
:101720008923FBCF2F923F924F925F926F927F92CD
:101730008F929F92AF92BF92CF92DF92EF92FF92E1
:101740000F931F93CF93DF93EC018B017A01690113
:10175000C61AD70AD7FE03C0D194C194D108470155
:101760008C1A9D0A97FE03C09194819491088C1461
:101770009D0454F49E2D8F2D7901292F382F9C2FF5
:101780008D2FE801092F182FEC16FD0654F4902F29
:10179000812F8901292F382F9C2F8D2FE701E92ECA
:1017A000F82E17012C1A3D0A2901401A510A57FE3A
:1017B00003C0519441945108310137FE03C08FEFAB
:1017C000681A780A759467948FEF021713070CF460
:1017D00081E0A82E880FBB08EC16FD06A4F041E0BE
:1017E000BE01C8018C149D0414F0B801CE010E9402
:1017F000740B6418750877FE04C00A0D1B1D620C7B
:10180000731C2196E9CFDF91CF911F910F91FF902B
:10181000EF90DF90CF90BF90AF909F908F907F9090
:101820006F905F904F903F902F9008952F923F922E
:101830004F925F926F927F928F929F92AF92BF92E0
:10184000CF92DF92EF92FF920F931F93CF93DF938C
:10185000CDB7DEB72A970FB6F894DEBF0FBECDBF67
:101860009A8389836A3061F5DC0155968C91B8E0E2
:101870008B9F90011124E981FA8181899289820FDD
:10188000931F928B818B108A178681E090E02A96B5
:101890000FB6F894DEBF0FBECDBFDF91CF911F9181
:1018A0000F91FF90EF90DF90CF90BF90AF909F90FF
:1018B0008F907F906F905F904F903F902F90089502
:1018C0006D3019F329813A813A872987D9011F960A
:1018D000AD90BC90B0E8AB16B1040CF07BC0F90140
:1018E000C188D288F0E4CF16D1040CF073C0D901BE
:1018F00055966C90559745E09501649E200D311DDD
:101900001124121613060CF065C0262C312C9101FF
:1019100053E0220F331F5A95E1F72C0D3D1D12168F
:1019200013060CF057C05496BC91BB83E985FA8529
:10193000F389FC83649FB00111249B0124553F4F20
:101940003A832983712CE981FA818491F5E07F1231
:1019500001C080E0460138E0532E282F30E03E835E
:101960002D834C8080FF4B80411004C03B818C81D3
:101970003817E1F010E000E00615C0F4D501A00F23
:10198000B11FB887AF83F12CE12CE61460F4B701E6
:10199000680D791D442D8F8198850E94740BBFEFCF
:1019A000EB1AFB0AF2CF0F5F1F4FE6CF8D819E81AE
:1019B000959587955A94820C931C5110CECF7394B1
:1019C000E981FA813196FA83E983A20CB31CF6E02F
:1019D0007F12B9CFA985BA8555962C915597422F7C
:1019E00050E01F968D919C91B6E02B9F800D911D2C
:1019F0001124E985FA85908B87872689222309F4AB
:101A000044CF6AEF64039001659F300D1124205884
:101A10003F4F281739070CF038CFDF010190F081D4
:101A2000E02D0190F081E02D6AE0CD0109952DCFE8
:101A30000895089590E080E00895FC01408351836B
:101A40006283738384819581A681B7814817590782
:101A50006A077B072CF480839183A283B38309C038
:101A600080859185A285B38584179507A607B7075A
:101A700094F3318B208B82899389281739071CF4C2
:101A8000918B808B05C08489958982179307C4F355
:101A90000895CF92DF92EF92FF92E7EDF5E0208973
:101AA0003189240F351FC080D180E280F380AB01E3
:101AB000BC014C0D5D1D6E1D7F1DCF01FF90EF9091
:101AC000DF90CF900C941D0D0C94E7180E941A1A09
:101AD0001F920F920FB60F9211248F939F938091B4
:101AE000E1009091E100937F9093E10083FF0FC0AC
:101AF0001092E90091E09093EB001092EC0092E3D9
:101B00009093ED001092860198E09093F00082FF90
:101B100022C093E09093E9009091F200992319F08C
:101B20009AE39093E80090917701992341F0909186
:101B30007701915090937701911101C05D9A909136
:101B40008501992341F090918501915090938501F1
:101B5000911101C0289A84FF18C08091E2008E7E06
:101B600081608093E2008091E1008F7E8093E100AC
:101B7000809178018E7E8061809378019F918F9112
:101B80000F900FBE0F901F90189580FFF7CF809198
:101B9000E2008E7E80618093E2008091E1008E7E83
:101BA0008093E100809178018E7E8160E5CF1F9265
:101BB0000F920FB60F921124CF92DF92EF92FF9205
:101BC0000F931F932F933F934F935F936F937F9345
:101BD0008F939F93AF93BF93EF93FF93CF93DF9335
:101BE000CDB7DEB76C97DEBFCDBF1092E900809114
:101BF000E80083FF25C068E0CE0145960E941607E5
:101C000082EF8093E8008D8987FF39C09091E800CA
:101C100090FFFCCF982F907609F034C19E894F89B0
:101C2000588D2F89F88C911131C0803861F58091E1
:101C300076018093F1001092F1008EEF8093E8001E
:101C40006C960FB6F894DEBF0FBECDBFDF91CF917B
:101C5000FF91EF91BF91AF919F918F917F916F9184
:101C60005F914F913F912F911F910F91FF90EF90B6
:101C7000DF90CF900F900FBE0F901F9018959EEFA2
:101C80009093E800C7CF1092F100D5CF913059F46E
:101C90008111D3CF4130510581F6809176018D7F3E
:101CA00080937601CACF933049F48111C6CF413079
:101CB000510519F6809176018260F2CF953041F49A
:101CC0008091E80080FFFCCF20682093E300B5CF2F
:101CD000963009F0A9C00B8D1C8D22E01092E9000E
:101CE0001092740110927301F2122EC010927201C0
:101CF000109271010E94E5061F8299E09983FA8291
:101D000091E09E8390EA98879AEF998720917301DA
:101D100030917401275F3F4F3C832B838D8310925A
:101D2000E9001092740110927301109372010093F4
:101D3000710149E050E0BE016F5F7F4F80E00E947B
:101D4000BF060E94E50679CF1093720100937101DE
:101D50000E94FC05DC0112960D911C9101151105E4
:101D600009F451C1D801ED91FC910480F581E02D79
:101D7000BE016B5E7F4FC8010995009709F03EC117
:101D8000F80100851185EACFF3E0FF120EC08F89BC
:101D9000882309F440C0823061F440E867E08BEEAC
:101DA0009AE00E945310811148CF81E28093EB00AA
:101DB00047CF813029F440E86BE08FED9AE0F1CF16
:101DC000833099F70E94FC05DC011296ED90FC909F
:101DD0008E010F5F1F4F6801E114F10479F0D70104
:101DE000ED91FC910680F781E02DB801C7010995BE
:101DF000080F111DF701E084F184EECFD8011C9289
:101E0000F60101900020E9F73197BF016C197D09B7
:101E100040E0C601C6CF69EC7AE0FB01449150E096
:101E200080E80E94BF0609CF973009F4BECF9830F2
:101E300021F481E08093F10000CF993009F0FDCECC
:101E4000837009F0B2CFE9E3F1E081E031E096E39D
:101E50002191222371F08093E9003093EB00DF01A0
:101E600011972C912093EC009093ED008F5F8730B9
:101E700079F78EE78093EA001092EA008F898093C9
:101E80008601DBCE8B8D9C8D1092E900109274013F
:101E9000109273019093720180937101898D811169
:101EA00092C08E899D89913A49F4813209F07DCFA3
:101EB00047E050E06CE171E080E0B3CF913209F08F
:101EC00074CF833269F48F89988DB0E0A0E080935D
:101ED000180190931901A0931A01B0931B01ADCE84
:101EE000803269F48091E80082FFFCCF67E08CE1EA
:101EF00091E00E9416078BEF8093E8009ECE82321D
:101F000009F09BCE8F8980932301EEEFFFE7859147
:101F100094918B3F9C4D51F1E0E0F8E080911C01E1
:101F200090911D01A0911E01B0911F01803B944032
:101F3000A105B105F1F48091230180FD1AC0EE3FA7
:101F40008AE0F80789F587E797E791838083809196
:101F500060008093750188E19BE00FB6F894A89526
:101F6000809360000FBE9093600067CEEEEFFAE0C2
:101F7000D5CF808191818737974709F05ECEA895AC
:101F800080916000886180936000809175018093EA
:101F90006000EE3F2AE0F20789F08091FE0A9091FE
:101FA000FF0A9183808349CE80819181873798078A
:101FB00051F29093FF0A8093FE0AC5CF1092FF0A58
:101FC0001092FE0A3ACE0E94FC05DC0112960D9199
:101FD0001C910115110509F4E8CED801ED91FC9191
:101FE0000190F081E02DBE016B5E7F4FC801099525
:101FF000811123CEF80100851185EBCF1816190643
:102000000CF41BCED2CEF1E0FF12BECE6DEC7AE026
:1020100004CF1F920F920FB60F9211242F933F936C
:102020008F939F93AF93BF9380916B0190916C01BD
:10203000A0916D01B0916E013091660123E0230FF4
:102040002D3758F50196A11DB11D2093660180938F
:102050006B0190936C01A0936D01B0936E01809120
:10206000670190916801A0916901B0916A010196A0
:10207000A11DB11D8093670190936801A093690130
:10208000B0936A01BF91AF919F918F913F912F9132
:102090000F900FBE0F901F90189526E8230F029601
:1020A000A11DB11DD2CFEF92FF920F931F93CF933B
:1020B000DF93F82E192FE62E042F81E0860F880F6C
:1020C0000E94910683E00E949106CF2DD12FEC0E45
:1020D000FD2EF11CCE15DF05B9F007FF13C0FE0180
:1020E00084910E949106182F80E00E94910681231E
:1020F00021968111EFCFDF91CF911F910F91FF902A
:10210000EF9008958881EDCF81E0F5CFFC01138A2F
:10211000128A408F518F628F738F80E098E0A0E029
:10212000B0E084839583A683B78380E098E6A1E03E
:10213000B0E080879187A287B38780E090E3958B9A
:10214000848B4083518362837383918B808B14864D
:10215000158616861786178A168ABB2777FDBA95C5
:10216000A72F962F852F63E070E00E946019848F5F
:102170000895E7E8F5E01382128288EE93E0A0E08C
:10218000B0E084839583A683B78383E491E0918351
:1021900080838FEF9FEF95878487EFE9F6E01382C6
:1021A00012821186128680E1838710861782158637
:1021B00085E591E09183808383E691E09583848334
:1021C000108A1786128A118A81E0838B148A858B84
:1021D000168A40E054E160E070E081EF95E00E94F3
:1021E000861040E056E460E070E08EE096E00E94E9
:1021F000861040E05EE660E070E08BE296E00E94D0
:10220000861040E05AEA60E070E088E496E00E94C0
:10221000861040E051EE60E070E085E696E00E94B6
:10222000861040E05CE261E070E082E896E00E94A7
:102230008610E7EDF5E01082118212821382148677
:10224000158616861786118A108A138A128A178AAB
:10225000168A108E118E80E09AE0A0E0B0E08483B0
:102260009583A683B78380E098E6A1E0B0E08087FD
:102270009187A287B38780E098E2958B848B08953D
:10228000CF93DF93CDB7DEB765970FB6F894DEBF77
:102290000FBECDBF789484B5826084BD84B5816063
:1022A00084BD85B5826085BD85B5816085BD809121
:1022B0006E00816080936E00109281008091810099
:1022C0008260809381008091810081608093810091
:1022D0008091800081608093800080919100826075
:1022E0008093910080919100816080939100809112
:1022F00090008160809390008091C1008460809301
:10230000C1008091C10082608093C1008091C100B2
:1023100081608093C1008091C30081608093C3007D
:102320008091C00082608093C0008091C200816073
:102330008093C20080917A00846080937A008091BB
:102340007A00826080937A0080917A008160809325
:102350007A0080917A00806880937A0010928601DA
:1023600010927601109278018091D700816080935D
:10237000D70080EA8093D80089B5806189BD89B58E
:10238000826089BD09B400FEFDCF61E070E080E0AD
:1023900090E00E9475078091D8008F7C80618093C7
:1023A000D8008091E000807F8093E0008091E10080
:1023B0008E7E8093E1008DE08093E200559A209A12
:1023C00081EC80937C0085B1806F85B984B1877E74
:1023D00084B984B1876E84B95E9A5F988AB1806D42
:1023E0008AB9769A6E9881B3806F81BB899880B3E1
:1023F0008D7080BB80E58CBD81E08DBD85E090E077
:102400000E94180A5F9A85E090E00E94180A5E9880
:102410005C98ECE5F6E084918EBD00000DB407FEFB
:10242000FDCF319606E0E936F007A9F75C9A81E81E
:10243000809364008091650081608093650080E0F6
:102440000E94B2050E941D0A87FF15C05C9885EAAC
:102450008EBD00000DB407FEFDCF5C9A2E982F981C
:102460002D988091640080628093640081E083BF36
:10247000889513BEFCCF0E941D0A82FF48C02D988C
:102480000E941D0A84788438E1F40E94160A88ECC0
:1024900090E00E94180A2F9882E090E00E94E718CE
:1024A0008F3F29F06FEF82E090E00E94EF1884EFF9
:1024B00091E00E94180A2F9A0E941D0A847884389D
:1024C000D9F30E941D0A84718431E1F40E94160A36
:1024D00088EC90E00E94180A2E9882E090E00E941A
:1024E000E718882329F060E082E090E00E94EF186E
:1024F00084EF91E00E94180A2E9A0E941D0A8471AE
:102500008431D9F388EC90E00E94180AB4CF0E947D
:10251000160A82E090E00E94640D882309F454C0FA
:102520003E9A3F9A81E090E00E94640D182F14704B
:10253000712E81FF0FC011112E9801EF1FEFB8E02F
:10254000EB2EF12C0E941D0A86FF41C02E9A2F9A75
:102550000E94160A82E390E00E94180A0E941D0A57
:102560008111F8CF109290008AE08093910081E26F
:102570008093AA061092A7061092A60610929000C9
:102580001092700110926F018FB7F89440916B0117
:1025900050916C0160916D0170916E018FBF8091BF
:1025A000AB06F42FF81B8F2F9091AC06992309F4FA
:1025B000B2C0F093AD061092AC0680E090E0892B9B
:1025C00019F30E940000E0CF3E983F98ABCF7720F0
:1025D00029F00430110511F42E9A2F9881E00E9401
:1025E000B205980117FF04C022273327201B310BA7
:1025F00027703327C80117FD0796A3E095958795A7
:10260000AA95E1F717FF05C00197A701421B530BDD
:102610009A01BC017695762F66277795679569575D
:102620007E4FB0E0A0E02701421A530A8E3F5FEFD1
:10263000950709F44CC0E8E5EA9F5001EB9FB00C08
:10264000112450E040E0F501E455FA4F5F014B01E1
:10265000F0E88F0E911C8F3F9807C1F0F501E40F51
:10266000F51F64906B01C40ED51EE62DF0E0022E1E
:1026700002C0EE0FFF1F0A94E2F7FA8BE98BF60116
:10268000F489FD8B69886F2AF601648A211531056A
:10269000C1F0F501E40FF51F64906401C40ED51E6E
:1026A000E62DF0E0042C02C0F595E7950A94E2F7D8
:1026B000FA8BE98BF601F489FD8B69886F2AF601A4
:1026C000648A4F5F5F4F4835510509F0C4CF0196CA
:1026D00060587F4F1197E1F480E00E94B2058FE0CF
:1026E00090E00E94180A0F5F1F4F0931110509F091
:1026F00029CF772011F02F9A2D9880E991E00E9440
:10270000180A0E94160A8FE996E00E94FE1722CF4F
:10271000A1E0B0E08BCF9091AA06F91748F48F5F43
:10272000891708F04ACF81E083BF889513BE45CF53
:1027300081E08093AC064093AB068091A606909111
:10274000A70601969093A7068093A6068091A806F7
:102750008093A9060E941D0A8093A80680916F01AC
:10276000909170018130910599F138F0029709F448
:10277000CFC080E00E94B20520CF8091A606909144
:10278000A706019791F40E94A5051092B106109238
:10279000B0061092AF061092AE0645E159E070E027
:1027A00060E090E080E00E946A0A8091A606909125
:1027B000A7064F97F0F21092A7061092A606109265
:1027C000900081E090E09093700180936F01D1CFF1
:1027D0008091A6069091A7060197D1F40E94A505C5
:1027E0001092B1061092B0061092AF061092AE068B
:1027F00044EA58E06AE070E081E190E00E946A0AF1
:1028000045E258E066E270E087E190E00E946A0AE3
:102810008091A90683FDADCF8091A80683FFA9CF43
:102820001092A7061092A6061092900082E090E007
:102830009093700180936F01809164008E7F8093EC
:10284000640080917A00806480937A0080917A009D
:1028500086FDFCCF00917800109179000E9450070E
:10286000AB01BC01C801B0E0A0E0DC0199278827DA
:102870008C019D01040F151F261F371FC901B801C8
:102880002091640021602093640061157105810529
:10289000910511F00E94DE1820E039E340E050E09D
:1028A0002093D7053093D8054093D9055093DA0586
:1028B00080E099E19093E8058093E7051092EF0599
:1028C000E1EFF5E02FE936E0E12C50E3F52E03E0EF
:1028D00010E0808D918DA28DB38D80839183A28332
:1028E000B383F18AE08A1486158616861786178ABE
:1028F000168A892F9A2FAB2FBB27A7FDBA95B8014F
:102900000E946019848F7D962E173F0711F731CFF3
:102910000E941D0A86FF10C050E040E060E071E0B8
:1029200080E090E00E94490D8091EF0590E00196D3
:10293000837099278093EF050E941D0A85FF10C0C0
:1029400050E040E060E07FEF8FEF9FEF0E94490D85
:102950008091EF0590E00196837099278093EF05B1
:102960000E941D0A87FF0FC040E05FEF60E070E04B
:10297000CB010E94490D8091EF0590E00196837094
:1029800099278093EF050E941D0A84FF0FC040E045
:1029900051E060E070E0CB010E94490D8091EF05AD
:1029A00090E00196837099278093EF054091D705B9
:1029B0005091D8056091D9057091DA058091000198
:1029C00090910101A0910201B09103018C019D0140
:1029D000165F2F4F3F4F40175107620773070CF0E8
:1029E0003AC15A50610971092091100130911101C9
:1029F00080E091E00E941D0D80E1E8E2F1E0DE015F
:102A0000119601900D928A95E1F70E941D0A83FFAD
:102A100034C182E09091F005890F87FF30C1109298
:102A2000F0058091F005882309F430C1E091A606F5
:102A3000F091A706F695E795EE70FF2741E050E08C
:102A40004C0F5D1FE40FF51F8081918120E42093DE
:102A5000900090939900809398004090D7055090F3
:102A6000D8056090D9057090DA0557E0550E611CC5
:102A7000711CF1EFAF2EF5E0BF2E75014091F0050E
:102A8000D70150966D917C915197442309F441C030
:102A90000D911D912D913C91185F2F4F3F4F8091CB
:102AA000D7059091D805A091D905B091DA050817FE
:102AB00019072A073B076CF1925FAF4FBF4F08170A
:102AC00019072A073B072CF58091E7059091E80547
:102AD000925F68177907ECF0042E000C550B542F09
:102AE0004427840F951F681779079CF440E85EEF30
:102AF000F701578B468B04151505260537050CF095
:102B0000C8C080E091E0A0E0B0E084879587A68708
:102B1000B7876115704309F062C00E948F1828E0E2
:102B200030E040E050E00E94FD18672B682B692BD5
:102B300009F055C00E948F1820E130E040E050E0DD
:102B40000E94FD18B82FA72F962F88279850A1090B
:102B5000B1098C019D01330F000B102F9801098BD7
:102B60001A8B2B8B3C8B9C01AD016989762F862FAC
:102B7000962F08E00E94B519922E032F142FB52F1F
:102B8000F62FE72FD82E892EA0E00E94EB1984F4AF
:102B90002150384F4F4F5F4F6F4F7F4F8F4F9F4F99
:102BA000922E032F142FB52FF62FE72FD82E892E14
:102BB000292D302F412F5B2F6F2F7E2F8D2D982D9C
:102BC0000BE00E94CE19D7011C962C931C971D96E2
:102BD0003C931D971E964C931E971F965C93BDE1E8
:102BE000EB0EF11CEFE9F6E0EE15FF0509F046CF1C
:102BF000B1EF8B2EB5E09B2EF40184859585A685DB
:102C0000B7850097A105B10509F471C040815181D4
:102C100062817381480F591F6A1F7B1F4083518354
:102C200062837383048115812681378140175107A0
:102C300062077307ECF50083118322833383B09519
:102C4000A095909581959F4FAF4FBF4F84879587F3
:102C5000A687B78737C09A58AF4FBF4F8A019B01ED
:102C6000125F2F4F3F4F80179107A207B3070CF059
:102C7000C3CE585661097109B7CE8CEFCBCE8F30D9
:102C80001CF48093F005CDCE8EE0FBCF1092900027
:102C9000E4CE40165106620673060CF03ACF00E00F
:102CA0001FEF2FEF3FEF048715872687378731CF38
:102CB00000851185228533850417150726073707F8
:102CC0000CF4B9CFD4011C966D917D918D919C919E
:102CD0001F9723EF30E040E050E00E947B1908E0AE
:102CE0000E94CE19F4012487358746875787F4015F
:102CF000A689B789109791F0808991898A0F9B1FC7
:102D0000918B808B2289338982179307B4F5318B9D
:102D1000208BB195A195B109B78BA68BD40156969E
:102D20008D919C91579780589F4F57969C938E9367
:102D30005697BDE18B0E911C8E149F0409F05CCF59
:102D40000E94A5051092B1061092B0061092AF062F
:102D50001092AE06C0900001D0900101E0900201F7
:102D6000F0900301E7E0F5E091E89150E9F08191FE
:102D7000DF01119780688C93F8CF24893589281753
:102D8000390764F6318B208BB195A195B10923EBFE
:102D900030E00E947419672F782F892F992787FDBB
:102DA0009A95778B668BBACFBB27F7FCBA95AF2D78
:102DB0009E2D8D2D62E170E00E9460192CEF3FEF97
:102DC000281B390BC901049618161906ACF4F90131
:102DD00037FF02C0F0E0E0E08138910514F080E8B0
:102DE00090E08E1BE95FFA4F815030F09191DF0146
:102DF000119790649C93F8CF2E5E3F4F2038310599
:102E00000CF38091D7059091D805A091D905B09188
:102E1000DA058C199D09AE09BF098115E0E89E0706
:102E2000A105B1050CF05DC02091E805222E322EDF
:102E3000330C3308692E990F7708E9E6F6E0049120
:102E4000EAE6F6E0E4908091EF054BE656E082304A
:102E5000A8F021E030E09E2D977011F430E020E0E2
:102E60008E2D869586958695820F932F911D089FAE
:102E7000A001099F500D11244559594F6AEFC62EE4
:102E800030E020E0B101C3010E942D088091F005DF
:102E900018163CF58101025F1F4F9801280F311D64
:102EA00087FD3A952D33310514F02CE330E0A30172
:102EB000B801C30102960E94920B8091F00598011F
:102EC000280F311D87FD3A952D33310514F02CE381
:102ED00030E0A301435F5F4FB801C3010B960E942E
:102EE000920BF50180819181A281B3814091000113
:102EF000509101016091020170910301841B950BB7
:102F0000A60BB70B892F9A2FAB2FBB27A7FDBA951E
:102F1000803891050CF051C0348D44855585668507
:102F2000778523E014161506160617060CF020E028
:102F3000230FF5016189762F770F770BE3EAF6E02F
:102F40000491E4EAF6E0E49045EA56E02223F1F049
:102F500041E050E03E2D377011F450E040E03E2D4E
:102F6000369536953695430F511D049FF001059F08
:102F7000F00D112430E0220F331FE29FA001E39FE8
:102F8000500DF29F500D11244B55594F23E0C22E86
:102F900030E020E00E942D088091A6069091A706BF
:102FA00083709927892B49F4D5015C968C915C97A5
:102FB0008F5F833001F15C968C93FDE1AF0EB11C05
:102FC0008A149B0409F08DCF0E941D0A83FFD1CB88
:102FD0008091A90682FDCDCB8091A80682FFC9CB46
:102FE0001092A7061092A6061092900010927001FF
:102FF00010926F01BECBF501148EDFCF0F931F939C
:10300000CF93DF938C0181E090E00E94640D80FFFC
:1030100032C08AE090E00E94640D9FEF980F9E3FBF
:1030200050F522E330E0D80150963C932E931F9741
:1030300028E330E052963C932E935197CBE0D0E0BA
:10304000D801ED91FC910190F081E02D682FC8012D
:103050000995CE010E94640D2196C131D10581F7F9
:1030600080E00E94B20588EE93E0DF91CF911F913E
:103070000F910C94180ADF91CF911F910F91089531
:1030800004970C94FE178F929F92AF92BF92CF92AB
:10309000DF92EF92FF92CF93DF93EC016881798109
:1030A0008A819B81611571058105910521F464E296
:1030B00079ED8BE597E02DE133EF41E050E00E94A0
:1030C000FD1849015A019B01AC01A7EAB1E40E9435
:1030D0001C196B017C01ACEEB4EFA50194010E94B8
:1030E0002A19C60ED71EE81EF91EF7FE06C081E09B
:1030F000C81AD108E10880E8F80AC882D982EA82B1
:10310000FB82C701B6019F77DF91CF91FF90EF90CF
:10311000DF90CF90BF90AF909F908F9008958F9247
:103120009F92AF92BF92CF92DF92EF92FF92609107
:10313000240170912501809126019091270161154C
:1031400071058105910521F464E279ED8BE597E045
:103150002DE133EF41E050E00E94FD1849015A0192
:103160009B01AC01A7EAB1E40E941C196B017C0130
:10317000ACEEB4EFA50194010E942A19C60ED71E29
:10318000E81EF91EF7FE06C081E0C81AD108E10862
:1031900080E8F80AC0922401D0922501E09226012D
:1031A000F0922701C701B6019F77FF90EF90DF9063
:1031B000CF90BF90AF909F908F900895609324011F
:1031C0007093250180932601909327010895F99922
:1031D000FECF92BD81BDF89A992780B50895262F1C
:1031E000F999FECF1FBA92BD81BD20BD0FB6F894EC
:1031F000FA9AF99A0FBE01960895052E97FB1EF4D0
:1032000000940E94141957FD07D00E942F1907FC43
:1032100003D04EF40C941419509540953095219597
:103220003F4F4F4F5F4F08959095809570956195F2
:103230007F4F8F4F9F4F08950E945119A59F900D6A
:10324000B49F900DA49F800D911D11240895B7FF88
:103250000C941C190E941C19821B930B0895A1E267
:103260001A2EAA1BBB1BFD010DC0AA1FBB1FEE1F00
:10327000FF1FA217B307E407F50720F0A21BB30B4B
:10328000E40BF50B661F771F881F991F1A9469F7C7
:1032900060957095809590959B01AC01BD01CF0123
:1032A0000895A29FB001B39FC001A39F700D811D1F
:1032B0001124911DB29F700D811D1124911D08953F
:1032C00097FB072E16F4009407D077FD09D00E94D3
:1032D000F71907FC05D03EF4909581959F4F08950E
:1032E000709561957F4F08950E945119B7FF089519
:1032F000821B930B089597FB57FF0C948B199F9398
:103300008F930E948B196E1B7F0BAF91BF918A0B1D
:103310009B0B0895E894DF93CF93FC01DB010E949F
:1033200051197F936F93E9019A01AC01BF93AF9359
:103330003F932F93DF010E94511926F46C1B7D0BE4
:10334000820B930B9E01EB01FC010E94111AAF91BD
:10335000BF912F913F910E94111ABE01CF01F90137
:103360002F913F91CF91DF910895002E083090F07A
:10337000982F872F762F652F542F432F322F2227F8
:103380000850F4CF220F331F441F551F661F771FAD
:10339000881F991F0A95B2F7002D089597FD109484
:1033A000002E083098F00850232F342F452F562F29
:1033B000672F782F892F912DF4CF159497958795A6
:1033C0007795679557954795379527950A95AAF765
:1033D0001124002D08950024A7FD00942A1730051C
:1033E0004005500560057005800590050895AA1BED
:1033F000BB1B51E107C0AA1FBB1FA617B70710F0E0
:10340000A61BB70B881F991F5A95A9F78095909511
:10341000BC01CD010895EE0FFF1F0590F491E02D42
:1034200009940E945119460F571FC81FD91F08F44D
:103430003196089581E090E0F8940C941F1AF89466
:02344000FFCFBC
:1034420000000000000000000080010000000000F9
:103452000000000000400000FFFFFFFF00E100004D
:10346200000000000100000087134610F20D340C2A
:10347200D90A340CF20D461000C180810000000010
:103482000000001006A80731062606770635065307
:103492000600000000160C23071A0D190DFE17FC7A
:0634A200FF0000401800CD
:00000001FF
