:100000000C942B070C9453070C9453070C94530730
:100010000C9453070C9453070C9453070C945307F8
:100020000C9453070C9453070C94D20F0C9441106A
:100030000C9453070C9453070C9453070C945307D8
:100040000C9453070C9453070C9453070C945307C8
:100050000C9453070C9453070C9453070C9473128D
:100060000C9453070C9453070C9453070C945307A8
:100070000C9453070C9453070C9453070C94530798
:100080000C9453070C9453070C9453070C94530788
:100090000C9453070C9453070C9453070C94530778
:1000A0000C9453070C9453070C9453070000000062
:1000B000003E5B4F5B3E3E6B4F6B3E1C3E7C3E1CEE
:1000C000183C7E3C181C577D571C1C5E7F5E1C0034
:1000D000183C1800FFE7C3E7FF0018241800FFE7EB
:1000E000DBE7FF30483A060E2629792926407F05AE
:1000F0000507407F05253F5A3CE73C5A7F3E1C1CC4
:1001000008081C1C3E7F14227F22145F5F005F5F83
:1001100006097F017F006689956A6060606060946F
:10012000A2FFA29408047E040810207E2010080874
:100130002A1C08081C2A08081E101010100C1E0C7F
:100140001E0C30383E3830060E3E0E060000000011
:100150000000005F00000007000700147F147F14F8
:10016000242A7F2A1223130864623649562050003D
:1001700008070300001C2241000041221C002A1C29
:100180007F1C2A08083E0808008070300008080814
:100190000808000060600020100804023E51494534
:1001A0003E00427F400072494949462141494D3352
:1001B0001814127F1027454545393C4A49493141B9
:1001C000211109073649494936464949291E000087
:1001D00014000000403400000008142241141414DC
:1001E0001414004122140802015909063E415D59C8
:1001F0004E7C1211127C7F494949363E41414122D1
:100200007F4141413E7F494949417F090909013EFA
:10021000414151737F0808087F00417F4100204021
:10022000413F017F081422417F404040407F021C33
:10023000027F7F0408107F3E4141413E7F0909094A
:10024000063E4151215E7F09192946264949493216
:1002500003017F01033F4040403F1F2040201F3FDC
:100260004038403F63140814630304780403615961
:10027000494D43007F4141410204081020004141A3
:10028000417F04020102044040404040000307084F
:100290000020545478407F2844443838444444284B
:1002A000384444287F385454541800087E090218F2
:1002B000A4A49C787F0804047800447D400020407A
:1002C000403D007F1028440000417F40007C0478BE
:1002D00004787C080404783844444438FC18242406
:1002E0001818242418FC7C08040408485454542486
:1002F00004043F44243C4040207C1C2040201C3C03
:100300004030403C44281028444C9090907C4464F9
:10031000544C44000836410000007700000041368C
:10032000080002010204023C2623263C1EA1A16112
:10033000123A4040207A3854545559215555794144
:100340002154547841215554784020545579400C1B
:100350001E527212395555555939545454593955FC
:100360005454580000457C410002457D420001453F
:100370007C40F0292429F0F0282528F07C545545AC
:10038000002054547C547C0A097F4932494949323F
:100390003248484832324A4848303A4141217A3A54
:1003A00042402078009DA0A07D39444444393D401E
:1003B00040403D3C24FF2424487E4943662B2FFCCB
:1003C0002F2BFF0929F620C0887E09032054547979
:1003D000410000447D413048484A32384040227A4A
:1003E000007A0A0A727D0D19317D2629292F2826C7
:1003F0002929292630484D402038080808080808CF
:100400000808382F10C8ACBA2F102834FA00007B27
:10041000000008142A142222142A1408950022002D
:1004200095AA005500AAAA55AA55AA000000FF00E7
:10043000101010FF00141414FF001010FF00FF1024
:1004400010F010F0141414FC001414F700FF000056
:10045000FF00FF1414F404FC141417101F10101FD5
:10046000101F1414141F00101010F0000000001FC3
:10047000101010101F10101010F010000000FF10CE
:100480001010101010101010FF10000000FF1400CA
:1004900000FF00FF00001F10170000FC04F41414FC
:1004A0001710171414F404F40000FF00F7141414C8
:1004B00014141414F700F7141414171410101F1048
:1004C0001F141414F4141010F010F000001F101F6B
:1004D0000000001F14000000FC140000F010F010D9
:1004E00010FF10FF141414FF141010101F00000050
:1004F00000F010FFFFFFFFFFF0F0F0F0F0FFFFFF54
:100500000000000000FFFF0F0F0F0F0F38444438AA
:10051000447C2A2A3E147E02020606027E027E02E5
:1005200063554941633844443C04407E201E200604
:10053000027E020299A5E7A5991C2A492A1C4C7241
:1005400001724C304A4D4D303048784830BC625AC8
:10055000463D3E494949007E0101017E2A2A2A2A58
:100560002A44445F444440514A444040444A514034
:100570000000FF0103E080FF000008086B6B0836F5
:1005800012362436060F090F060000181800000066
:100590001010003040FF0101001F01011E00191D55
:1005A0001712003C3C3C3C0000000000F0F89C8E20
:1005B0008783878E9CF8F00000FEFF03030303038C
:1005C000070EFCF80000FEFF0303030303070EFC05
:1005D000F80000FFFF00000000000000FFFF000027
:1005E000FEFF8383838383C7EE7C380000F8FC0E14
:1005F00007030303070EFCF800003F7FE0C0808084
:10060000C0E07F3FFFFF01010101010101FFFF0089
:1006100000FFFF0C0C0C0C1C3E77E3C100007FFFB9
:10062000C0C0C0C0C0E0703F1F00001F3F70E0C0EE
:10063000C0C0E0703F1F00007FFFC1C1C1C1C1E366
:10064000773E1C00001F3F70E0C0C0C0E0703F1F3D
:10065000000000000001FFFF01000000D5F08D1434
:10066000A1C881CFD9F1AF20000E0EC0E0F0D0B804
:10067000DCBCDCBCD8B0F0E0C0011D033A060505C7
:100680000505063A031D01C0E0F0B0D8BCDCBCDCB7
:10069000B8D0F0E0C01905030A3605050505360A8D
:1006A0000305190F06003F1E3F043F081E043F1EAE
:1006B0003F003F1E3F123F1E3F003F1E3F123F1EA6
:1006C0003F003F101000FEFCFED0FEF0F8D0FEFC14
:1006D000FE00FEC0E080E000E000E080E0C0F0E06E
:1006E000F060F000F0000301030103010301FF7D4E
:1006F000FF7CFF07FF070F070F071F0F3F1FFF7F3D
:10070000FF60FF00F0000000FFFEFFE8FFF8FCE8DC
:10071000FFFEFF00FF80E000E000E080E0C0F0E0CE
:10072000F830F80078000000010001000302FF7EAD
:10073000FF7EFF06FF070F070F071F0FFF7FFF7FDB
:10074000FF00FF000000FFFEFFE8FFF8FCE8FFFEEF
:10075000FF00FFC0E080E000E000E080E0C0F0E0EB
:10076000F830F8007800010001000100F362FF7E1C
:10077000FF3EFF077F070F070F071F0FFF7FFF7F5A
:10078000FF00FF000000F060F0E0F0C0F080E0004B
:10079000E000E080E0C0E000FEFCFED0FEF0F8D01B
:1007A000FEFCFE00FE00F060FF7FFF1FFF0F3F0713
:1007B0001F070F070F07FF7CFF7DFF01FF010301EC
:1007C0000301030003007830F8E0F8C0F080E00097
:1007D000E000E080E000FFFEFFE8FFF8FCE8FFFE3D
:1007E000FF00FF0000000000FF7FFF7FFF0FFF07FB
:1007F0001F070F070F06FF7EFF7EFF02FF000300AB
:100800000100010000007830F8E0F8C0F080E0005E
:10081000E000E080E0C0E000FFFEFFE8FFF8FCE859
:10082000FFFEFF00FF000000FF7FFF7FFF0FFF07BD
:100830001F070F070F077F3EFF7EFF62FF00F300D9
:1008400001000100011008007E3CFF42FF5AFF5AE0
:10085000FF42FF3CFF107E083C083C103C103C0867
:100860003C083C103C003C007E3CFF42FF5AFF5AD3
:10087000FF42FF3CFF087E083C103C103C083C084F
:100880003C103C103C003C007E3CFF42FF5AFF5AAB
:10089000FF42FF3CFF087E103C103C083C083C1027
:1008A0003C103C083C003C007E3CFF42FF5AFF5A93
:1008B000FF42FF3CFF107E103C083C083C103C10FF
:1008C0003C083C083C003C003C103C083C083C1008
:1008D0003C103C083C083C107E3CFF42FF5AFF5A4B
:1008E000FF42FF3CFF007E003C103C103C083C08EF
:1008F0003C103C103C083C087E3CFF42FF5AFF5A2B
:10090000FF42FF3CFF007E003C083C103C103C08CE
:100910003C083C103C103C087E3CFF42FF5AFF5A0A
:10092000FF42FF3CFF007E003C083C083C103C10AE
:100930003C083C083C103C107E3CFF42FF5AFF5AEA
:10094000FF42FF3CFF007E11050E1111001F111F19
:10095000000F1008100F0013151907051F111F00B5
:100960001F050504081E29251E223F2000322929C3
:10097000261221251A0C0A3F08172525191E2525A0
:1009800018013905031A25251A0629291E7F3FE873
:10099000A30F3A0D9A0A1A0A9A0BDFD2A7D32DC9D0
:1009A0003A5595AA4A55A53A32E5AA5255A9AADC64
:1009B000E4CE57B29255964AB9542A954AE514970F
:1009C000F3E96C4E5249974D479F952E954A452520
:1009D0005D361D63AE2A5595AACA392EE552A95433
:1009E0002A155556BA542A159772A9542A95CA2918
:1009F0002EE9B2E9D8AD4AA552A9544E912957958E
:100A0000AA4A55E5E6CB55A5AA52553947255D3684
:100A10002D553AEFA8B3D2A552A9B8944BA552A927
:100A2000544EC153CAA5D3F129974EE7159365B427
:100A3000A4CA55B292959D4DB9743ABAA475E930DD
:100A400094AB64252BAB982CA3C551D2BA7464D651
:100A5000A5D37945A65C252B59D9D9954BA7E35346
:100A60002E9DCE2B2E47AA381D59B69295AC640701
:100A70004FA6D3D1A6D3D1471B6D3A1D7D3A1D7D1C
:100A80003A34A5D3E968A30D5DE9E8A28F369D0E3F
:100A90005DE974B4E974F4E9E8D2D1A6D3E96883D6
:100AA0000F75C94A762EE5C8944BA552A9544E91AC
:100AB00029974AA552A9D25CCAA552A9542AE7B8D7
:100AC00094AB4A55A5AA729327AD4BA552116995CF
:100AD0004EE71D977255A9AA54556E72E9B269A9DD
:100AE000D279C7A55C55AA2A55959B2C695D2A9594
:100AF0008A4BB9AA5455AA2A379B72A9542A95CA77
:100B0000292EE9B2E9F83A5595AA4A55A53A265947
:100B100010753A9D0DEC5DDDD55DDD954ED3A5A339
:100B20004B47978EDB75AEBBBA2B59C9A24B479783
:100B30008E2E1DF176ABD374E9E8D2D1A54391DCBA
:100B4000B6AB5DBDEA15934DB7AB5DED6A577A4B19
:100B5000242B59F0783A9D4EA7A34B47978E2E1D14
:100B60007D3A9D4EA7A34B47978E2E1DBAD2D1A595
:100B7000A34B47970E4DE9743A9D8E369D4EA7D3F1
:100B8000D1A683E600500FA49295ACA42253B29252
:100B9000959C4DC94A56B22253B29295ACC894ACBA
:100BA00064252B72E5D2D974295595AA4A9552F934
:100BB000745E91A7D34AA6A353329D56E44A56B217
:100BC0009215593AAD643A3A252B594945A6642500
:100BD0002B395B3AAD64BAC7D2ACB3ADD3E9E8D236
:100BE000E9EC74E97476F67D3A9FBB743A77E96C68
:100BF0003A39B6665FA7B3D3A7D3D9D9679F75B67D
:100C000059679F155D0F19FFFFFF7F3E3EC6FFFF2F
:100C1000FFFFFF6764FCFFFFFFF9F818ED96D16E48
:100C2000F9F89D739C8CFFFFFFFFFFCFC868B78C5E
:100C300076CBC7CFC7CFC7C7F8FFFFFFDB2DA3DD3C
:100C4000BEDD6EB7DBED76D6ED76BBDD6EB7B36E8F
:100C5000C7D276D6EDACDB59B76371BBDD6EB7DBBF
:100C6000EDACDB59B7B36EC7D276BBDD6EB7DB59DF
:100C7000B76371BB057F3FC02C6EB776FB7636BB82
:100C800095DBEDCA6E99ECF6ABBEEAAB5EF52A0CCD
:100C9000D9AD4EA7D3E998EC96C96EBFD5AD6EB568
:100CA0009DCD6EBFEAABBEEA55AFC290DDEA74BA25
:100CB000ED96C96ED57ABDB25B26BBB5CBF5DB2D03
:100CC00093DD32D9EDB7BAD5ADAC52C564B75FF597
:100CD000555FF5AA5731D9EDAB5EF5AAAD92F05745
:100CE0003AFA74F4E9E8D2E9743A9D0E4DE9743A9F
:100CF0009D4E47978E2E1DDAD2E9743A9D0E5DE91E
:100D0000743A1D6D3A4AA7ECABBEDC559FFAE67209
:100D1000CA7EEA5B9DDA2AE7DB2EDD7AF96D97BEA3
:100D2000EDF6ABBEEAAB5EF5542955BBFAAAAFFAB5
:100D3000AA6F7583C74A6FB7DBED76B6EDECDBD9EA
:100D4000B6B36F67DB6EB7DBED76B6ED76BBDD6E07
:100D500083BD425BA0EBB2B5CA553A9FCF676B9596
:100D6000AB743ED9C94EE607EFB64F76DEB954678D
:100D7000BB94ECAECFA7E5D96AB57239C5AF64258F
:100D80002B59912959C94A2A3225D36925D3694556
:100D90002565252BA9C894AC64256753B292959C10
:100DA0002F3225D36945A664252B39979495AC64D9
:100DB0004597CD66B3D9D4B2929554644AA6D3D19F
:100DC0002959C94A4932A5D349452565252BA9C8C2
:100DD00094AC642515992A59C94A49782B9F4F56D6
:100DE0003A9B8D2F1B6835080B0002020200000998
:100DF0000400000102020000052400100105240186
:100E000001010424020605240600010705810310E0
:100E1000004009040100020A000000070502024028
:100E200000000705830240000004030904120100CA
:100E300002EF02014041233680000101020301411B
:100E4000726475696E6F204C4C4300417264756228
:100E50006F790000351311241FBECFEFDAE0DEBF3B
:100E6000CDBF11E0A0E0B1E0EAE4FBE302C00590F1
:100E70000D92A636B107D9F727E0A6E6B1E001C08A
:100E80001D92AA35B207E1F717E0CBE2D7E004C024
:100E90002197FE010E948F1DCA32D107C9F70E9417
:100EA00021140C94A31D0C9400006F927F928F92DA
:100EB0009F92AF92BF92CF92DF92EF92FF920F93E9
:100EC0001F93CF93DF93DC01FA0114913196549173
:100ED0003196C12FD0E0222309F1CC24C394D12C28
:100EE000852F877011F4D12CC12CE52EE694E69461
:100EF000E694EC0CFD2CF11CEC9EC001ED9E900DD7
:100F0000FC9E900D1124033011F4880F991F289F27
:100F10007001299FF00C1124EE0DFF1D7D01EC0ED8
:100F2000FD1E1E141F040CF031C1A038B1050CF0D9
:100F30002DC1CB01850F911D181619060CF026C185
:100F4000603471050CF022C1309709F41FC1362FAF
:100F50003770CB0177FD079623E0959587952A9505
:100F6000E1F7282F77FF04C0332311F02FEF280F6C
:100F7000662777276A1B7B0BB7FD02C070E060E035
:100F800090E89A1B40E8E416F1040CF4912F961BAC
:100F9000E22E022E000CFF08DE2CD0942F3F0CF026
:100FA000D12C41E0852F877009F440E0B52EB6942E
:100FB000B694B6944B0DE40EF11C89E0E816F104EA
:100FC00014F048E0421BB42EBD182D0D40E8240358
:100FD00070011124AE0DBF1DA60FB71F1D9D600D22
:100FE000711D1124AF01460F571FC32E032E000C95
:100FF000DD08033009F47EC00A3F09F441C0023025
:1010000009F0C4C06FEF70E0032E02C0660F771FB7
:101010000A94E2F760957095972E8B2C820E281516
:1010200009F4B4C08D0108571E4FF12CE12CE916CC
:1010300008F054C0FA01EE0DFF1DE491F0E03F010D
:101040000C2C02C0660C771C0A94E2F727FD05C041
:10105000F8018081862386298083332359F0273045
:101060004CF45801F0E8AF0EB11CF50180818921E4
:1010700087298083FFEFEF1AFF0A0F5F1F4FD7CF3B
:10108000B20E2B1509F482C0BD0168577E4F10E0E7
:1010900000E0091748F5FA01E00FF11FE491F0E0D4
:1010A0004F010C2C02C0880C991C0A94E2F727FD12
:1010B00004C0FB01808188298083332351F02730CD
:1010C00044F47B01F0E8EF0EF11CF70180818929DF
:1010D00080830F5F1F4F6F5F7F4FDBCF2F5F4C0F02
:1010E0005D1FA058BF4F9BCF2F5F4C0F5D1FA058B7
:1010F000BF4FC7CFE92EF12CFA01E60FF71FA85713
:10110000BE4F60E870E06E197F09CE19DF098E01CD
:10111000000F111F41E050E07A01032E01C0EE0CD8
:101120000A94EAF7592F4B2D892E932ECF93DF93F4
:10113000ED01EF96EF962296A590C590992059F073
:10114000AE9C5001CE9C600127302CF4F880D094E6
:10115000FD20FB28F99222233AF0FC90C094FC2059
:10116000FA28FD920C94B50811965A9529F74A95DC
:1011700051F0582D23951124E00FF11DA60FB11D3C
:10118000C60FD11DD9CFDF91CF911124DF91CF911F
:101190001F910F91FF90EF90DF90CF90BF90AF9095
:1011A0009F908F907F906F90089580E0E8E8F1E045
:1011B00081118FEF00248193819381938193039414
:1011C000D1F70895E8E8F1E0A0E0B8E000800EBCB7
:1011D0008111012C1197A0FDFDCF0192B9F70DB43B
:1011E0000895FC0180918701882311F13FB7F8949D
:1011F00082E08093E9002091F200822F90E018169F
:10120000190614F481E090E0882339F0289844E628
:10121000409386014091F1004083222339F02091D0
:10122000F200211103C02BE62093E8003FBF089590
:101230008FEF9FEF08952FB7F89483E08093E90034
:101240009091E800892F807295FF04C09091F20080
:1012500080E4891B2FBF089580917E0181110DC00C
:1012600082E080937A0184E080937B0110927D017B
:1012700010927C0181E080937E018AE791E00895DD
:10128000CF93DF931F92CDB7DEB76983DC01ED9179
:10129000FC910280F381E02D41E050E0BE016F5FE0
:1012A0007F4F09950F90DF91CF91089583E0809350
:1012B000E9008091F200882319F08AE38093E80026
:1012C00008950E941B0990E00895CF93DF931F9229
:1012D000CDB7DEB7FC018485958597FD08C02FEF5B
:1012E0003FEF358724870F90DF91CF910895CE018E
:1012F00001960E94F108019719F4898190E0F3CFDB
:101300008FEF9FEFF0CF0F931F93CF93DF931F9239
:10131000CDB7DEB78C01FC018485958597FF0BC0A6
:10132000CE0101960E94F108019771F4898190E045
:10133000F80195878487F801848595850F90DF9162
:10134000CF911F910F9108958FEF9FEFF1CFFC0187
:101350008485958597FD0BC09FB7F89482E08093B4
:10136000E9008091F2009FBF90E0019608959FB739
:10137000F89482E08093E9008091F2009FBF90E0B2
:10138000089540917401509175012091720130913E
:10139000730142175307B4F49091E8009570E1F39C
:1013A0009091E80092FD19C08093F1008091740142
:1013B0009091750101968F739927892B19F48EEFFF
:1013C0008093E8008091740190917501019690934B
:1013D00075018093740181E0089580E00895DF92A3
:1013E000EF92FF920F931F93CF93DF93D82E8A0132
:1013F000EB017B01E40EF51ECE15DF0559F0D7FE9B
:1014000012C0FE0184910E94C10921968111F4CF7E
:101410000FEF1FEFC801DF91CF911F910F91FF9048
:10142000EF90DF9008958881EECF0F931F93CF93B5
:10143000DF931F92CDB7DEB782E0898342E450E0AC
:1014400067EE7DE080E80E94EF090E942C09DC0134
:1014500012960D911C910115110589F0D801ED919D
:10146000FC910280F381E02DBE016F5F7F4FC801C8
:10147000099597FD04C0F80100851185ECCF89819D
:101480000F90DF91CF911F910F910895615030F02F
:101490002091F100FC0120830196F8CF289884E682
:1014A000809386010895AF92BF92CF92DF92EF9220
:1014B000FF920F931F93CF93DF936C017B018B01FE
:1014C000040F151FEB015E01AE18BF08C017D1074E
:1014D00059F06991D601ED91FC910190F081E02DD8
:1014E000C6010995892B79F7C501DF91CF911F912D
:1014F0000F91FF90EF90DF90CF90BF90AF90089545
:101500003FB7F8948091670190916801A0916901BB
:10151000B0916A0126B5A89B05C02F3F19F001962E
:10152000A11DB11D3FBFBA2FA92F982F8827BC013D
:10153000CD01620F711D811D911D42E0660F771F65
:10154000881F991F4A95D1F708958F929F92AF9265
:10155000BF92CF92DF92EF92FF926B017C010E94CB
:10156000800A4B015C01C114D104E104F104B9F01B
:101570000E94800A681979098A099B09683E7340AC
:101580008105910580F321E0C21AD108E108F10834
:1015900088EE880E83E0981EA11CB11CE4CFFF905A
:1015A000EF90DF90CF90BF90AF909F908F90089575
:1015B0008F929F92AF92BF92CF92DF92EF92FF9263
:1015C0000F931F93CF93DF936C017B018A0180916E
:1015D0002301882309F45CC080918701882309F4E2
:1015E00057C08091790180FF05C08091E000826042
:1015F0008093E000E801B12C8AEFA82E93E0892EB9
:101600002AE3922E209711F4BB20D9F10E941B09E6
:1016100081110AC0AA94AA20D9F161E070E080E0AB
:1016200090E00E94A50AEECF8C171D0611F00CF079
:101630008C2F9FB7F8948092E9002091E80025FD57
:1016400002C09FBFDFCF282F30E0C21BD30BF701B2
:10165000815020F041914093F100FACFE20EF31E49
:10166000BB2021F09092E800B12CEBCF8091E800F4
:1016700085FDE7CF9092E800BB24B394209709F34F
:10168000F3CF5D9884E680937801101611063CF044
:1016900081E090E0F6019383828310E000E0C801CE
:1016A000DF91CF911F910F91FF90EF90DF90CF903E
:1016B000BF90AF909F908F9008950F9302E00E948B
:1016C00055070F9108952D9A0895BC0190E080E090
:1016D0000C94A50A8FB18095807F669B88601C9BC7
:1016E000846008951F93CF93DF93DC0130E020E006
:1016F00050E040E011E0C1E0D0E02617370791F15B
:1017000014968C911497811115C014961C931497FC
:1017100012968D919C911397ED91FC911197E80F82
:10172000F91FE4911596EC931597019613969C93E7
:101730008E93129714969C91149715968C911597E9
:10174000892349F0FE01022E02C0EE0FFF1F0A940A
:10175000E2F74E2B5F2B990F14969C9314972F5FF3
:101760003F4FCBCFCA01DF91CF911F9108952F92A8
:101770003F924F925F926F927F928F929F92AF9221
:10178000BF92CF92DF92EF92FF920F931F93CF936E
:10179000DF93CDB7DEB72D970FB6F894DEBF0FBE3F
:1017A000CDBF5C018B015A8349831C821B821D8241
:1017B0001E8268E070E0CE0101960E94720B0196D5
:1017C0001C0168E070E0CE0101960E94720B7C0162
:1017D00061E070E0CE0101960E94720B91012A0D2A
:1017E0003B1D121613060CF0B3C097012F5F3F4F3D
:1017F000A901400F511F141615060CF0A9C038019D
:1018000047E064227724A80173E0559547957A95BF
:10181000E1F759874887890137FF02C0095F1F4FE9
:1018200063E0159507956A95E1F727703327232B19
:1018300011F00F5F1F4F482E51E05F83512CF12CA8
:10184000E12CD12CC12C88E090E09C0126193709AD
:101850003D872C87C016D1060CF07AC0882483946B
:10186000912C61E070E0CE0101960E94720B892BF1
:1018700021F432E0830E911CF4CFB401CE01019625
:101880000E94720B01969B878A8790E080E04A85D0
:101890005B858417950708F058C0442011F05F81DC
:1018A000552AAF81AA0F09F04AC0288539852C0D29
:1018B0003D1DA9014F5F5F4F4930510580F5A501DE
:1018C0004E0D5F1D4038510550F5B9017695762FC4
:1018D0006627779567956A0D7B1D6E0D7F1D852C9C
:1018E000912CFB01E857FE4FA401062C01C0440FC8
:1018F0000A94EAF75081452B40836114710479F012
:101900002730310561F0FB01E85FFD4F0C8402C018
:10191000959487940A94E2F75080852880822FEF6F
:10192000E21AF20AE214F3046CF03FEFC31AD30A8E
:1019300041E04F83F12CE12C01965A2EA8CFAF83C2
:10194000A52DFACF51E05F83F7CF81E0482682CF03
:101950002D960FB6F894DEBF0FBECDBFDF91CF91AD
:101960001F910F91FF90EF90DF90CF90BF90AF90BD
:101970009F908F907F906F905F904F903F902F90AF
:10198000089580389105B8F460347105A0F420E121
:1019900091E061FD94E060FD990F62FD9295687F92
:1019A000269FD0011124A80FA857BE4F8C9140FF4D
:1019B00003C0892B8C93089590958923FBCF2F9298
:1019C0003F924F925F926F927F928F929F92AF92CF
:1019D000BF92CF92DF92EF92FF920F931F93CF931C
:1019E000DF93EC018B017A016901C61AD70AD7FE91
:1019F00003C0D194C194D10847018C1A9D0A97FE67
:101A000003C09194819491088C149D0454F49E2DEC
:101A10008F2D7901292F382F9C2F8D2FE801092F29
:101A2000182FEC16FD0654F4902F812F8901292FD1
:101A3000382F9C2F8D2FE701E92EF82E17012C1A35
:101A40003D0A2901401A510A57FE03C0519441949E
:101A50005108310137FE03C08FEF681A780A759478
:101A600067948FEF021713070CF481E0A82E880FFC
:101A7000BB08EC16FD06A4F041E0BE01C8018C14C1
:101A80009D0414F0B801CE010E94C10C64187508C1
:101A900077FE04C00A0D1B1D620C731C2196E9CF52
:101AA000DF91CF911F910F91FF90EF90DF90CF903A
:101AB000BF90AF909F908F907F906F905F904F906E
:101AC0003F902F9008952F923F924F925F926F9286
:101AD0007F928F929F92AF92BF92CF92DF92EF92BE
:101AE000FF920F931F93CF93DF93CDB7DEB72A9763
:101AF0000FB6F894DEBF0FBECDBF9A8389836A30DC
:101B000061F5DC0155968C91B8E08B9F9001112412
:101B1000E981FA8181899289820F931F928B818B4F
:101B2000108A178681E090E02A960FB6F894DEBFFF
:101B30000FBECDBFDF91CF911F910F91FF90EF901E
:101B4000DF90CF90BF90AF909F908F907F906F90DD
:101B50005F904F903F902F9008956D3019F3298139
:101B60003A813A872987D9011F96AD90BC90B0E899
:101B7000AB16B1040CF07BC0F901C188D288F0E447
:101B8000CF16D1040CF073C0D90155966C905597BF
:101B900045E09501649E200D311D11241216130697
:101BA0000CF065C0262C312C910153E0220F331F1D
:101BB0005A95E1F72C0D3D1D121613060CF057C077
:101BC0005496BC91BB83E985FA85F389FC83649FB5
:101BD000B00111249B0124553F4F3A832983712C76
:101BE000E981FA818491F5E07F1201C080E046012D
:101BF00038E0532E282F30E03E832D834C8080FF29
:101C00004B80411004C03B818C813817E1F010E01B
:101C100000E00615C0F4D501A00FB11FB887AF834F
:101C2000F12CE12CE61460F4B701680D791D442D08
:101C30008F8198850E94C10CBFEFEB1AFB0AF2CF8F
:101C40000F5F1F4FE6CF8D819E81959587955A94A2
:101C5000820C931C5110CECF7394E981FA81319696
:101C6000FA83E983A20CB31CF6E07F12B9CFA985F1
:101C7000BA8555962C915597422F50E01F968D911D
:101C80009C91B6E02B9F800D911D1124E985FA856A
:101C9000908B87872689222309F444CF6AEF640357
:101CA0009001659F300D112420583F4F28173907A8
:101CB0000CF038CFDF010190F081E02D0190F08130
:101CC000E02D6AE0CD0109952DCF0895089590E0AB
:101CD00080E008950F931F93CF93DF93EC018C85E1
:101CE0009D85AE85BF850097A105B10509F43FC06C
:101CF000488159816A817B81480F591F6A1F7B1F68
:101D0000488359836A837B830C811D812E813F81A7
:101D1000401751076207730784F4088319832A83E5
:101D20003B83B095A095909581959F4FAF4FBF4F46
:101D30008C879D87AE87BF8709C0088519852A854E
:101D40003B8504171507260737073CF36C857D850F
:101D50008E859F8520E033EF40E050E00E94241DF7
:101D600000E10E945E1D2C873D874E875F87DF91D3
:101D7000CF911F910F910895FC014083518362839D
:101D8000738384819581A681B781481759076A07B3
:101D90007B072CF480839183A283B38309C0808561
:101DA0009185A285B38584179507A607B70794F395
:101DB000318B208B82899389281739071CF4918BEA
:101DC000808B05C08489958982179307C4F3089591
:101DD0000C94841C0E949E1D8F929F92AF92BF9282
:101DE000CF92DF92EF92FF920F931F93CF93DF93E7
:101DF00010924B0710924A07109290009093710135
:101E0000809370018130910581F483E080936F01AC
:101E1000DF91CF911F910F91FF90EF90DF90CF90C6
:101E2000BF90AF909F908F900895039789F780910E
:101E300064008E7F8093640080917A008064809338
:101E40007A0080917A0086FDFCCFC0917800D09115
:101E500079000E94800AAB01BC01CE01B0E0A0E095
:101E6000DC01992788278C019D01040F151F261F6F
:101E7000371FC901B80120916400216020936400DC
:101E8000611571058105910511F00E947B1C10926E
:101E9000000110920101109202011092030180E0F2
:101EA00090E0A9E3B0E08093F0059093F105A09352
:101EB000F205B093F30580E099E1909301068093D9
:101EC00000061092FC051092FD051092FE0510927E
:101ED000FF05109208061092090610920A0640911A
:101EE000E0055091E1056091E2057091E3054093B2
:101EF000D8055093D9056093DA057093DB0540E06F
:101F000050E86DEF7FEF4093E4055093E505609353
:101F1000E6057093E7059093E9058093E805CBE02B
:101F2000D6E010E000E0C12C80E3D82E93E0E92E4B
:101F3000F12C80916F018017110609F00CF468CF25
:101F40000E942C1C8C809D80AE80BF8097FF07C0B4
:101F500090958095709561957F4F8F4F9F4F288505
:101F600039854A855B85281939094A095B090E9428
:101F70009A1C680D791D8A1D9B1D688379838A834D
:101F80009B83D98AC88A1C861D861E861F861F8A47
:101F90001E8AB7010E94091D888F198E0F5F1F4F7F
:101FA0006A96C7CF1F920F920FB60F9211248F938C
:101FB0009F938091E1009091E100937F9093E100E5
:101FC00083FF0FC01092E90091E09093EB00109214
:101FD000EC0092E39093ED001092870198E09093CB
:101FE000F00082FF22C093E09093E9009091F2000C
:101FF000992319F09AE39093E8009091780199233E
:1020000041F090917801915090937801911101C025
:102010005D9A90918601992341F0909186019150AB
:1020200090938601911101C0289A84FF18C0809175
:10203000E2008E7E81608093E2008091E1008F7EDD
:102040008093E100809179018E7E80618093790197
:102050009F918F910F900FBE0F901F90189580FF4A
:10206000F7CF8091E2008E7E80618093E2008091C4
:10207000E1008E7E8093E100809179018E7E816007
:10208000E5CF1F920F920FB60F921124CF92DF92DD
:10209000EF92FF920F931F932F933F934F935F9372
:1020A0006F937F938F939F93AF93BF93EF93FF9320
:1020B000CF93DF93CDB7DEB76C97DEBFCDBF109265
:1020C000E9008091E80083FF25C068E0CE014596D5
:1020D0000E94460A82EF8093E8008D8987FF39C00D
:1020E0009091E80090FFFCCF982F907609F034C1D2
:1020F0009E894F89588D2F89F88C911131C0803875
:1021000061F5809177018093F1001092F1008EEFDC
:102110008093E8006C960FB6F894DEBF0FBECDBF7B
:10212000DF91CF91FF91EF91BF91AF919F918F91EF
:102130007F916F915F914F913F912F911F910F91DF
:10214000FF90EF90DF90CF900F900FBE0F901F90F9
:1021500018959EEF9093E800C7CF1092F100D5CF6D
:10216000913059F48111D3CF4130510581F68091DE
:1021700077018D7F80937701CACF933049F4811125
:10218000C6CF4130510519F6809177018260F2CFB8
:10219000953041F48091E80080FFFCCF20682093C7
:1021A000E300B5CF963009F0A9C00B8D1C8D22E05D
:1021B0001092E9001092750110927401F2122EC073
:1021C00010927301109272010E94150A1F8299E009
:1021D0009983FA8291E09E8390EA98879AEF998793
:1021E0002091740130917501275F3F4F3C832B8311
:1021F0008D831092E9001092750110927401109372
:1022000073010093720149E050E0BE016F5F7F4FA0
:1022100080E00E94EF090E94150A79CF10937301A4
:10222000009372010E942C09DC0112960D911C9101
:102230000115110509F451C1D801ED91FC910480FB
:10224000F581E02DBE016B5E7F4FC80109950097B7
:1022500009F03EC1F80100851185EACFF3E0FF12D5
:102260000EC08F89882309F440C0823061F440E8B1
:1022700067E08BE49EE00E94BD12811148CF81E2AD
:102280008093EB0047CF813029F440E86BE08FE387
:102290009EE0F1CF833099F70E942C09DC01129661
:1022A000ED90FC908E010F5F1F4F6801E114F10467
:1022B00079F0D701ED91FC910680F781E02DB8010E
:1022C000C7010995080F111DF701E084F184EECFD5
:1022D000D8011C92F60101900020E9F73197BF0167
:1022E0006C197D0940E0C601C6CF69E27EE0FB01C2
:1022F000449150E080E80E94EF0909CF973009F43B
:10230000BECF983021F481E08093F10000CF993066
:1023100009F0FDCE837009F0B2CFE9E3F1E081E08E
:1023200031E096E32191222371F08093E90030930C
:10233000EB00DF0111972C912093EC009093ED00BE
:102340008F5F873079F78EE78093EA001092EA007A
:102350008F8980938701DBCE8B8D9C8D1092E90055
:102360001092750110927401909373018093720121
:10237000898D811192C08E899D89913A49F481326B
:1023800009F07DCF47E050E06CE171E080E0B3CF31
:10239000913209F074CF833269F48F89988DB0E05F
:1023A000A0E08093180190931901A0931A01B093B3
:1023B0001B01ADCE803269F48091E80082FFFCCF32
:1023C00067E08CE191E00E94460A8BEF8093E80081
:1023D0009ECE823209F09BCE8F8980932301EEEF4F
:1023E000FFE7859194918B3F9C4D51F1E0E0F8E03F
:1023F00080911C0190911D01A0911E01B0911F01BF
:10240000803B9440A105B105F1F48091230180FD4A
:102410001AC0EE3F8AE0F80789F587E797E79183CE
:102420008083809160008093760188E19BE00FB605
:10243000F894A895809360000FBE9093600067CEDB
:10244000EEEFFAE0D5CF808191818737974709F089
:102450005ECEA89580916000886180936000809135
:10246000760180936000EE3F2AE0F20789F08091C8
:10247000FE0A9091FF0A9183808349CE80819181E9
:102480008737980751F29093FF0A8093FE0AC5CFD1
:102490001092FF0A1092FE0A3ACE0E942C09DC012B
:1024A00012960D911C910115110509F4E8CED80181
:1024B000ED91FC910190F081E02DBE016B5E7F4FAC
:1024C000C8010995811123CEF80100851185EBCF54
:1024D000181619060CF41BCED2CEF1E0FF12BECEB8
:1024E0006DE27EE004CF1F920F920FB60F9211247F
:1024F0002F933F938F939F93AF93BF9380916B01E3
:1025000090916C01A0916D01B0916E0130916601C6
:1025100023E0230F2D3758F50196A11DB11D2093FF
:10252000660180936B0190936C01A0936D01B09351
:102530006E018091670190916801A0916901B0914D
:102540006A010196A11DB11D8093670190936801F6
:10255000A0936901B0936A01BF91AF919F918F9150
:102560003F912F910F900FBE0F901F90189526E866
:10257000230F0296A11DB11DD2CFEF92FF920F93B0
:102580001F93CF93DF93F82E192FE62E042F81E0AF
:10259000860F880F0E94C10983E00E94C109CF2DD8
:1025A000D12FEC0EFD2EF11CCE15DF05B9F007FF83
:1025B00013C0FE0184910E94C109182F80E00E947F
:1025C000C109812321968111EFCFDF91CF911F9116
:1025D0000F91FF90EF9008958881EDCF81E0F5CFC6
:1025E0000F931F93CF93DF938C0181E090E00E94C3
:1025F000E80E80FF32C08AE090E00E94E80E9FEF74
:10260000980F9E3F50F522E330E0D80150963C935E
:102610002E931F9728E330E052963C932E935197C8
:10262000CBE0D0E0D801ED91FC910190F081E02D5C
:10263000682FC8010995CE010E94E80E2196C1318C
:10264000D10581F780E00E94E20888EE93E0DF91F7
:10265000CF911F910F910C94650BDF91CF911F913A
:102660000F91089504970C94F012CF92DF92EF929D
:10267000FF9210928B0510928A0588EE93E0A0E0FD
:10268000B0E080938C0590938D05A0938E05B09358
:102690008F0583E491E090938905809388058FEFFF
:1026A0009FEF9093950580939405109246071092A2
:1026B000450710924C0710924D0780E180934E071A
:1026C00010924B0710924A071092500785E591E04F
:1026D000909344078093430783E691E090934807E3
:1026E0008093470710925307109252071092550794
:1026F0001092540781E080935607109257078093F9
:10270000580710925907EBE0F6E023E437E0C12CBC
:10271000D12C88E0E82EF12C80E090E0A8EEB1E02A
:1027200040E050E3108211821282138214861586D3
:1027300016861786118A108A138A128A178A168AB1
:10274000C482D582E682F78280879187A287B38789
:10275000558B448B7A962E173F0721F71092F00580
:102760001092F1051092F2051092F3051092FC05FB
:102770001092FD051092FE051092FF0510920106C1
:1027800010920006109207061092060640E050E0F4
:102790006AE070E04093F4055093F5056093F60508
:1027A0007093F7058093F8059093F905A093FA05C7
:1027B000B093FB0580E098E09093030680930206B7
:1027C00020E038E230930506209304061092D805E5
:1027D0001092D9051092DA051092DB051092DC05F3
:1027E0001092DD051092DE051092DF051092E405CF
:1027F0001092E5051092E6051092E7051092E905A2
:102800001092E8051092EF051092EE0540E050E0BE
:1028100060EF71E04093E0055093E1056093E205BD
:102820007093E3059093EB058093EA0580E09EE2C8
:102830009093ED058093EC05FF90EF90DF90CF90A3
:102840000895CF93DF9300D000D000D01F92CDB772
:10285000DEB7789484B5826084BD84B5816084BD20
:1028600085B5826085BD85B5816085BD80916E002E
:10287000816080936E00109281008091810082605F
:10288000809381008091810081608093810080919C
:1028900080008160809380008091910082608093AD
:1028A00091008091910081608093910080919000CF
:1028B0008160809390008091C10084608093C1000A
:1028C0008091C10082608093C1008091C1008160CD
:1028D0008093C1008091C30081608093C300809188
:1028E000C00082608093C0008091C20081608093AC
:1028F000C20080917A00846080937A0080917A008F
:10290000826080937A0080917A00816080937A005F
:1029100080917A00806880937A00109287011092EB
:102920007701109279018091D70081608093D70060
:1029300080EA8093D80089B5806189BD89B58260BD
:1029400089BD09B400FEFDCF61E070E080E090E059
:102950000E94A50A8091D8008F7C80618093D80066
:102960008091E000807F8093E0008091E1008E7E86
:102970008093E1008DE08093E200559A209A81ECEB
:1029800080937C0085B1806F85B984B1877E84B9DE
:1029900084B1876E84B95E9A5F988AB1806D8AB976
:1029A000769A6E9881B3806F81BB899880B38D7061
:1029B00080BB80E58CBD81E08DBD85E090E00E940C
:1029C000650B5F9A85E090E00E94650B5E985C98CD
:1029D000ECE5F6E084918EBD00000DB407FEFDCF5E
:1029E000319626E0E936F207A9F75C9A81E88093F0
:1029F00064008091650081608093650080E00E94A2
:102A0000E2080E946A0B87FF15C05C9885EA8EBDBC
:102A100000000DB407FEFDCF5C9A2E982F982D98DC
:102A20008091640080628093640081E083BF889518
:102A300013BEFCCF0E946A0B82FF48C02D980E94F3
:102A40006A0B84788438E1F40E94630B88EC90E090
:102A50000E94650B2F9882E090E00E94841C8F3FBB
:102A600029F06FEF82E090E00E948C1C84EF91E0EF
:102A70000E94650B2F9A0E946A0B84788438D9F3E0
:102A80000E946A0B84718431E1F40E94630B88EC2C
:102A900090E00E94650B2E9882E090E00E94841CDA
:102AA000882329F060E082E090E00E948C1C84EF93
:102AB00091E00E94650B2E9A0E946A0B847184310A
:102AC000D9F388EC90E00E94650BB4CF0E94630BB1
:102AD00082E090E00E94E80E882309F455C03E9AF7
:102AE0003F9A81E090E00E94E80E382F3470932ED8
:102AF00081FF10C031112E9871EF472E55245A9442
:102B000008E010E00E946A0B86FF41C02E9A2F9ABF
:102B10000E94630B82E390E00E94650B0E946A0BA7
:102B20008111F8CF109290008AE08093910081E2A9
:102B300080934E0710924B0710924A071092900014
:102B400010927101109270018FB7F89440916B014F
:102B500050916C0160916D0170916E018FBF8091F9
:102B60004F07942F981B892F90915007992309F4B0
:102B7000B5C0809351071092500780E090E0892BF8
:102B800019F30E940000E0CF3E983F98AACF992009
:102B900031F044E04416510411F42E9A2F9881E04C
:102BA0000E94E208920157FE04C02227332724190D
:102BB000350927703327C20157FC079663E09595C6
:102BC00087956A95E1F757FE05C00197D801A21BCA
:102BD000B30B9D01BC017695762F66277795679597
:102BE00068577E4FF12CE12C3801621A730A8E3F30
:102BF000BFEF9B0709F44AC0E8E5EE9DD001EF9DC9
:102C0000B00D112450E040E0A455BA4F5B01F0E84C
:102C1000AF0EB11C8F3F9807C1F0FD01E40FF51F07
:102C200084906B01C40ED51EE82DF0E0022E02C088
:102C3000EE0FFF1F0A94E2F7FF83EE83F601F4899B
:102C4000FD838E808F2AF601848A21153105C1F01B
:102C5000FD01E40FF51F84906501C40ED51EE82D1B
:102C6000F0E0062C02C0F595E7950A94E2F7FF83A1
:102C7000EE83F601F489FD838E808F2AF601848A23
:102C80004F5F5F4F4835510509F0C4CF019660583A
:102C90007F4FEA94EF28F1F480E00E94E2088FE091
:102CA00090E00E94650B2FEF421A520A39E1431659
:102CB000510409F027CF992011F02F9A2D9880E91F
:102CC00091E00E94650B0E94630B83E497E00E94F1
:102CD000F01220CFEE24E394F12C89CF90914E078F
:102CE000891748F48F5F891708F047CF81E083BFC9
:102CF000889513BE42CF81E08093500740934F07E1
:102D000080914A0790914B07019690934B078093CF
:102D10004A0780914C0780934D070E946A0B80936D
:102D20004C0780917001909171018230910509F4F6
:102D30006EC040F40097E9F00197F1F180E00E9445
:102D4000E2081BCF8330910509F483C00497B1F7E3
:102D500080914A0790914B078130910509F0ADC4ED
:102D600080916F018C3008F08BE08F5F80936F0152
:102D7000E5CF80914A0790914B07019791F40E940B
:102D8000D5081092550710925407109253071092CD
:102D9000520745E75CE070E060E090E080E00E9470
:102DA000B70B80914A0790914B074F9738F281E01B
:102DB00090E00E94EC0EC2CF80914A0790914B07A1
:102DC0000197D1F40E94D50810925507109254072C
:102DD000109253071092520744E05CE06AE070E002
:102DE00081E190E00E94B70B45E85BE066E270E0AD
:102DF00087E190E00E94B70B80914D0783FD9ECF45
:102E000080914C0783FF9ACF82E090E0D2CF8091EF
:102E10004A0790914B07019791F40E94D5081092B0
:102E200055071092540710925307109252074DE81D
:102E300059E070E060E090E080E00E94B70B809184
:102E40004A0790914B07CD9708F478CF83E090E044
:102E5000B0CF0E946A0B86FF1CC08091FC05909148
:102E6000FD05A091FE05B091FF058453934BAF4F34
:102E7000BF4F8093FC059093FD05A093FE05B09392
:102E8000FF058091080690E0019683709927809352
:102E900008060E946A0B85FF1CC08091FC0590917A
:102EA000FD05A091FE05B091FF058C5C9C44A10935
:102EB000B1098093FC059093FD05A093FE05B093A6
:102EC000FF058091080690E0019683709927809312
:102ED00008060E946A0B87FF19C0209100063091F6
:102EE00001063A954091F0055091F1056091F20587
:102EF0007091F30580EF95E00E94BC0E809108066A
:102F000090E0019683709927809308060E946A0BCF
:102F100084FF19C02091000630910106339540913D
:102F2000F0055091F1056091F2057091F30580EF85
:102F300095E00E94BC0E8091080690E00196837097
:102F400099278093080680EF95E00E946A0E4091D1
:102F5000F0055091F1056091F2057091F3058091B3
:102F6000000190910101A0910201B09103018C0137
:102F70009D01265F3F4F40175107620773070CF012
:102F8000CFC06A507109209110013091110180E089
:102F900091E00E94BC0E8091000690910106209164
:102FA000E8053091E905AC015850241735070CF4B9
:102FB00054C0925F281739070CF04FC08091F0057C
:102FC0009091F105A091F205B091F3054091D805DB
:102FD0005091D9056091DA057091DB058C019D0156
:102FE000205131094017510762077307B4F11E964B
:102FF000481759076A077B0784F58091E40590918B
:10300000E505A091E605B091E705109209062FE0CD
:1030100020930A064091FC055091FD056091FE0544
:103020007091FF05480F591F6A1F7B1F4093FC05D5
:103030005093FD056093FE057093FF05B095A09534
:10304000909581959F4FAF4FBF4F8093E40590932C
:10305000E505A093E605B093E7058091E40590911E
:10306000E505A091E605B091E7050097A105B1053A
:1030700009F473C04091D8055091D9056091DA05E3
:103080007091DB05480F591F6A1F7B1F4093D805BD
:103090005093D9056093DA057093DB050091DC0548
:1030A0001091DD052091DE053091DF0540175107B5
:1030B000620773070CF043C00093D8051093D9053D
:1030C0002093DA053093DB05B095A0959095819516
:1030D0009F4FAF4FBF4F8093E4059093E505A093BA
:1030E000E605B093E7050E942C1C2091EA0530917B
:1030F000EB05AB0177FF04C044275527461B570B50
:103100006091EC057091ED05621B730BCA010E9482
:10311000091D820F931F9093E9058093E8051DC058
:10312000AA58BF4F8A019B01225F3F4F801791072A
:10313000A207B3070CF02FCF6856710924CF009176
:10314000E0051091E1052091E2053091E3050417B7
:103150001507260737070CF4AFCF0E946A0B83FFD1
:103160009CC082E090910A06992309F498C01092BD
:10317000090680910906882309F49FC0E0914A0757
:10318000F0914B07F695E795EE70FF27E85DFE4F4F
:103190008081918120E42093900090939900809306
:1031A00098008090F0059090F105A090F205B09005
:1031B000F305A7E0AA0EB11C1BE0E12E16E0F12EEC
:1031C000FC82EB8210E0D12CC12C0AE050906F0100
:1031D000652C712CC614D7040CF00BC1E0910906C4
:1031E000AB81BC8150962D913C915197EE2309F40F
:1031F0006DC04D905D906D907C90B8E06B0E711C31
:103200004091F0055091F1056091F2057091F30540
:10321000DB01CA011197481659066A067B060CF4B1
:1032200055C0615F7F4F44165506660677060CF061
:103230004DC06091000670910106AB01525F8E2F68
:10324000EE0F990B982F8827840F951F26173707A5
:10325000BCF128173907D4F51F5F24173507B4F1DF
:1032600047EE5EEFEB81FC81578B468B4814590487
:103270006A047B040CF08FC08091FC059091FD05E1
:10328000A091FE05B091FF058D5C9C4CAF4FBF4FE8
:1032900084879587A687B78719C08CEF63CF9091F5
:1032A0000906890F8093090687FD61CF8F300CF4E2
:1032B00060CF8EE0809309065CCF1092900071CFB2
:1032C000241735071CF02817390754F2211530430D
:1032D00011F50E942C1C20E230E040E050E00E94FA
:1032E0009A1C672B682B692BB1F40E942C1C97FF4A
:1032F00007C090958095709561957F4F8F4F9F4F38
:10330000837099270297AB81BC811C966D937D9346
:103310008D939C931F970E942C1C20E830E040E086
:1033200050E00E949A1C672B682B692B19F4EB81E3
:10333000FC81018F8B819C810E946A0EEB81FC8154
:10334000A689B789109791F0808991898A0F9B1F70
:10335000918B808B22893389821793078CF5318B6F
:10336000208BB195A195B109B78BA68BAB81BC81A0
:1033700056968D919C91579780589F4F57969C9346
:103380008E935697BFEFCB1ADB0AEB81FC817A96BE
:10339000FC83EB831BCF84149504A604B7040CF0C4
:1033A00095CF8091FC059091FD05A091FE05B0910F
:1033B000FF0583539343A109B109EB81FC8168CFD9
:1033C000EB81FC8124893589281739077CF6318BFC
:1033D000208BB195A195B10923EB30E00E941D1D12
:1033E000672F782F892F992787FD9A95778B668B82
:1033F000BDCF0E94D5081092550710925407109225
:103400005307109252078090000190900101A09004
:103410000201B0900301E8E0F5E091E8915031F04D
:103420008191DF01119780688C93F8CFC50162E12B
:1034300070E00E94091D2CEF3FEF281B390BC901DA
:10344000049618161906ACF4F90137FF02C0F0E033
:10345000E0E08138910514F080E890E08E1BE85F91
:10346000FA4F815030F09191DF01119790649C9355
:10347000F8CF2E5E3F4F203831050CF38091F005D8
:103480009091F105A091F205B091F3058819990981
:10349000AA09BB090097F0E8AF07B10508F049C0D9
:1034A000209101062983220F220B2A834D01BB2480
:1034B00097FCB094AB2C21E080910806823008F490
:1034C00020E00AEF49E656E069817A81C4010E9452
:1034D000550780910906181664F529813A81225F03
:1034E0003F4F3C832B83280F311D87FD3A952D33A9
:1034F000310514F02CE330E0A4016B817C81C40120
:1035000002960E94DF0C809109062B813C81280FD6
:10351000311D87FD3A952D33310514F02CE330E051
:10352000A401435F5F4FC4010B966B817C810E94B5
:10353000DF0C80910A06882319F0815080930A06D7
:103540001C821B8240910001509101016091020197
:10355000709103018B819C816816790609F468C01B
:10356000D7018D909D90AD90BC90841A950AA60AC3
:10357000B70A81149104B0E8AB06B10408F049C061
:103580004501BB2497FCB094AB2CF7018189282E10
:10359000382E330C3308208D84859585A685B78514
:1035A000181619061A061B06F4F583E0280F03E027
:1035B00043EC56E0B101C4010E94550780914A07CF
:1035C00090914B0783709927892B49F4D70158961E
:1035D0008C9158978F5F833041F158968C93D70127
:1035E00059968C9159978823A1F050968D919C9172
:1035F0008115904351F403E020E043EA56E0B10125
:1036000067507109C4010E945507F701818D8150EF
:10361000818F2B813C812F5F3F4F3C832B833AE18D
:10362000E30EF11C8FCF80E0C1CFF701108ED7CF12
:103630008091D8059091D905A091DA05B091DB056C
:10364000841B950BA60BB70B009740E8A407B105A8
:1036500020F5CD01BB2797FDB095AB2F6091E90513
:10366000762F770F770B20914A0730914B073695CD
:103670002795369527952370C090E405D090E505F1
:10368000E090E605F090E70530E0F7FE34E0230F28
:1036900003E045E458E00E9455071A3090F489E0B1
:1036A000851540F098E29D8311C03DE43B8342E3E1
:1036B0004D8313C032E53B8323C0CC9709F03ECB4A
:1036C000C5CB49E0451588F35DE25D839FE7892E10
:1036D0002D81821A8B821A3098F0812F6AE00E9425
:1036E000FD1C282F43E659E070E060E08B80882DB8
:1036F00090E00E945D0B84E8882E2D81821A8B82D7
:103700000AE0812F602F0E94FD1C292F43E659E01B
:1037100070E060E08B80882D90E00E945D0B20E0DF
:103720004AE559E061E070E08B81895F90E00E949A
:103730005D0B2B812F5E2D8339E0351588F4852DA7
:10374000602F0E94FD1C282F43E659E070E060E0E6
:103750008D80882D90E00E945D0B2B812A5E2D8349
:10376000852D6AE00E94FD1C292F43E659E070E098
:1037700060E08D80882D90E00E945D0B2D81295F97
:103780002B8320E047E459E061E070E03B81832F28
:1037900090E00E945D0B511204C084E090E00E9412
:1037A000EC0E0E946A0B83FFC9CA80914D0782FD0F
:1037B000C5CA80914C0782FFC1CA90E080E0F9CA77
:1037C0008F929F92AF92BF92CF92DF92EF92FF9231
:1037D000CF93DF93EC01688179818A819B816115A8
:1037E00071058105910521F464E279ED8BE597E09F
:1037F0002DE133EF41E050E00E949A1C49015A014B
:103800009B01AC01A7EAB1E40E94B91C6B017C01E9
:10381000ACEEB4EFA50194010E94C71CC60ED71EE2
:10382000E81EF91EF7FE06C081E0C81AD108E108BB
:1038300080E8F80AC882D982EA82FB82C701B60111
:103840009F77DF91CF91FF90EF90DF90CF90BF9067
:10385000AF909F908F9008958F929F92AF92BF925A
:10386000CF92DF92EF92FF92609124017091250137
:1038700080912601909127016115710581059105BF
:1038800021F464E279ED8BE597E02DE133EF41E03F
:1038900050E00E949A1C49015A019B01AC01A7EA21
:1038A000B1E40E94B91C6B017C01ACEEB4EFA50140
:1038B00094010E94C71CC60ED71EE81EF91EF7FE13
:1038C00006C081E0C81AD108E10880E8F80AC09271
:1038D0002401D0922501E0922601F0922701C70130
:1038E000B6019F77FF90EF90DF90CF90BF90AF90A1
:1038F0009F908F9008956093240170932501809389
:103900002601909327010895F999FECF92BD81BDBC
:10391000F89A992780B50895262FF999FECF1FBAF6
:1039200092BD81BD20BD0FB6F894FA9AF99A0FBEE8
:1039300001960895052E97FB1EF400940E94B11C79
:1039400057FD07D00E94CC1C07FC03D04EF40C940A
:10395000B11C50954095309521953F4F4F4F5F4F8B
:10396000089590958095709561957F4F8F4F9F4FEB
:1039700008950E94EE1CA59F900DB49F900DA49FEA
:10398000800D911D11240895B7FF0C94B91C0E945D
:10399000B91C821B930B0895A1E21A2EAA1BBB1B14
:1039A000FD010DC0AA1FBB1FEE1FFF1FA217B3070B
:1039B000E407F50720F0A21BB30BE40BF50B661F21
:1039C000771F881F991F1A9469F7609570958095E5
:1039D00090959B01AC01BD01CF010895A29FB0015C
:1039E000B39FC001A39F700D811D1124911DB29F33
:1039F000700D811D1124911D0895991B79E004C05B
:103A0000991F961708F0961B881F7A95C9F780951D
:103A1000089597FB072E16F4009407D077FD09D080
:103A20000E947B1D07FC05D03EF4909581959F4F29
:103A30000895709561957F4F08950E94EE1CB7FF21
:103A40000895821B930B089597FB57FF0C94341D28
:103A50009F938F930E94341D6E1B7F0BAF91BF917C
:103A60008A0B9B0B0895E894DF93CF93FC01DB0155
:103A70000E94EE1C7F936F93E9019A01AC01BF9302
:103A8000AF933F932F93DF010E94EE1C26F46C1B33
:103A90007D0B820B930B9E01EB01FC010E94951D97
:103AA000AF91BF912F913F910E94951DBE01CF0113
:103AB000F9012F913F91CF91DF91089597FD1094D7
:103AC000002E083098F00850232F342F452F562F02
:103AD000672F782F892F912DF4CF1594979587957F
:103AE0007795679557954795379527950A95AAF73E
:103AF0001124002D0895AA1BBB1B51E107C0AA1F6A
:103B0000BB1FA617B70710F0A61BB70B881F991F7E
:103B10005A95A9F780959095BC01CD010895EE0FB7
:103B2000FF1F0590F491E02D09940E94EE1C460FB2
:103B3000571FC81FD91F08F43196089581E090E0FF
:0A3B4000F8940C94A31DF894FFCF35
:103B4A000000000000000000000000020000000069
:103B5A000000000000400000FFFFFFFF00E100003E
:103B6A00000000000100000087134610F20D340C1B
:103B7A00D90A340CF20D461000C180810000000001
:103B8A000000004009D80A61095609A70965098396
:103B9A000900000000630D530A670E660EF012FC5E
:063BAA00FF0000321300D1
:00000001FF
